{
	"SchoolCertificate.sol": {
		"SchoolCertificate": {
			"abi": [
				{
					"inputs": [],
					"stateMutability": "nonpayable",
					"type": "constructor"
				},
				{
					"anonymous": false,
					"inputs": [
						{
							"indexed": true,
							"internalType": "address",
							"name": "oldAdmin",
							"type": "address"
						},
						{
							"indexed": true,
							"internalType": "address",
							"name": "newAdmin",
							"type": "address"
						}
					],
					"name": "AdminChanged",
					"type": "event"
				},
				{
					"anonymous": false,
					"inputs": [
						{
							"indexed": true,
							"internalType": "string",
							"name": "studentId",
							"type": "string"
						},
						{
							"indexed": false,
							"internalType": "string",
							"name": "studentName",
							"type": "string"
						},
						{
							"indexed": false,
							"internalType": "string",
							"name": "courseName",
							"type": "string"
						},
						{
							"indexed": false,
							"internalType": "string",
							"name": "grade",
							"type": "string"
						},
						{
							"indexed": false,
							"internalType": "uint256",
							"name": "dateOfIssuance",
							"type": "uint256"
						}
					],
					"name": "CertificateIssued",
					"type": "event"
				},
				{
					"inputs": [],
					"name": "admin",
					"outputs": [
						{
							"internalType": "address",
							"name": "",
							"type": "address"
						}
					],
					"stateMutability": "view",
					"type": "function"
				},
				{
					"inputs": [
						{
							"internalType": "address",
							"name": "newAdmin",
							"type": "address"
						}
					],
					"name": "changeAdmin",
					"outputs": [],
					"stateMutability": "nonpayable",
					"type": "function"
				},
				{
					"inputs": [
						{
							"internalType": "string",
							"name": "studentId",
							"type": "string"
						}
					],
					"name": "getCertificate",
					"outputs": [
						{
							"internalType": "string",
							"name": "studentName",
							"type": "string"
						},
						{
							"internalType": "string",
							"name": "courseName",
							"type": "string"
						},
						{
							"internalType": "string",
							"name": "grade",
							"type": "string"
						},
						{
							"internalType": "uint256",
							"name": "dateOfIssuance",
							"type": "uint256"
						}
					],
					"stateMutability": "view",
					"type": "function"
				},
				{
					"inputs": [
						{
							"internalType": "string",
							"name": "studentId",
							"type": "string"
						},
						{
							"internalType": "string",
							"name": "studentName",
							"type": "string"
						},
						{
							"internalType": "string",
							"name": "courseName",
							"type": "string"
						},
						{
							"internalType": "string",
							"name": "grade",
							"type": "string"
						},
						{
							"internalType": "uint256",
							"name": "dateOfIssuance",
							"type": "uint256"
						}
					],
					"name": "issueCertificate",
					"outputs": [],
					"stateMutability": "nonpayable",
					"type": "function"
				},
				{
					"inputs": [
						{
							"internalType": "string",
							"name": "studentId",
							"type": "string"
						}
					],
					"name": "verifyCertificate",
					"outputs": [
						{
							"internalType": "bool",
							"name": "",
							"type": "bool"
						}
					],
					"stateMutability": "view",
					"type": "function"
				}
			],
			"devdoc": {
				"kind": "dev",
				"methods": {},
				"version": 1
			},
			"evm": {
				"assembly": "    /* \"SchoolCertificate.sol\":60:2726  contract SchoolCertificate {... */\n  mstore(0x40, 0x80)\n    /* \"SchoolCertificate.sol\":1026:1077  constructor() {... */\n  callvalue\n  dup1\n  iszero\n  tag_1\n  jumpi\n  0x00\n  dup1\n  revert\ntag_1:\n  pop\n    /* \"SchoolCertificate.sol\":1059:1069  msg.sender */\n  caller\n    /* \"SchoolCertificate.sol\":1051:1056  admin */\n  0x01\n  0x00\n    /* \"SchoolCertificate.sol\":1051:1069  admin = msg.sender */\n  0x0100\n  exp\n  dup2\n  sload\n  dup2\n  0xffffffffffffffffffffffffffffffffffffffff\n  mul\n  not\n  and\n  swap1\n  dup4\n  0xffffffffffffffffffffffffffffffffffffffff\n  and\n  mul\n  or\n  swap1\n  sstore\n  pop\n    /* \"SchoolCertificate.sol\":60:2726  contract SchoolCertificate {... */\n  dataSize(sub_0)\n  dup1\n  dataOffset(sub_0)\n  0x00\n  codecopy\n  0x00\n  return\nstop\n\nsub_0: assembly {\n        /* \"SchoolCertificate.sol\":60:2726  contract SchoolCertificate {... */\n      mstore(0x40, 0x80)\n      callvalue\n      dup1\n      iszero\n      tag_1\n      jumpi\n      0x00\n      dup1\n      revert\n    tag_1:\n      pop\n      jumpi(tag_2, lt(calldatasize, 0x04))\n      shr(0xe0, calldataload(0x00))\n      dup1\n      0x5e2213f7\n      eq\n      tag_3\n      jumpi\n      dup1\n      0x8b23d875\n      eq\n      tag_4\n      jumpi\n      dup1\n      0x8f283970\n      eq\n      tag_5\n      jumpi\n      dup1\n      0xed0f2e75\n      eq\n      tag_6\n      jumpi\n      dup1\n      0xf851a440\n      eq\n      tag_7\n      jumpi\n    tag_2:\n      0x00\n      dup1\n      revert\n        /* \"SchoolCertificate.sol\":1414:1936  function issueCertificate(... */\n    tag_3:\n      tag_8\n      0x04\n      dup1\n      calldatasize\n      sub\n      dup2\n      add\n      swap1\n      tag_9\n      swap2\n      swap1\n      tag_10\n      jump\t// in\n    tag_9:\n      tag_11\n      jump\t// in\n    tag_8:\n      stop\n        /* \"SchoolCertificate.sol\":2588:2723  function verifyCertificate(string memory studentId) public view returns (bool) {... */\n    tag_4:\n      tag_12\n      0x04\n      dup1\n      calldatasize\n      sub\n      dup2\n      add\n      swap1\n      tag_13\n      swap2\n      swap1\n      tag_14\n      jump\t// in\n    tag_13:\n      tag_15\n      jump\t// in\n    tag_12:\n      mload(0x40)\n      tag_16\n      swap2\n      swap1\n      tag_17\n      jump\t// in\n    tag_16:\n      mload(0x40)\n      dup1\n      swap2\n      sub\n      swap1\n      return\n        /* \"SchoolCertificate.sol\":1122:1366  function changeAdmin(address newAdmin) external onlyAdmin {... */\n    tag_5:\n      tag_18\n      0x04\n      dup1\n      calldatasize\n      sub\n      dup2\n      add\n      swap1\n      tag_19\n      swap2\n      swap1\n      tag_20\n      jump\t// in\n    tag_19:\n      tag_21\n      jump\t// in\n    tag_18:\n      stop\n        /* \"SchoolCertificate.sol\":2001:2519  function getCertificate(string memory studentId)... */\n    tag_6:\n      tag_22\n      0x04\n      dup1\n      calldatasize\n      sub\n      dup2\n      add\n      swap1\n      tag_23\n      swap2\n      swap1\n      tag_14\n      jump\t// in\n    tag_23:\n      tag_24\n      jump\t// in\n    tag_22:\n      mload(0x40)\n      tag_25\n      swap5\n      swap4\n      swap3\n      swap2\n      swap1\n      tag_26\n      jump\t// in\n    tag_25:\n      mload(0x40)\n      dup1\n      swap2\n      sub\n      swap1\n      return\n        /* \"SchoolCertificate.sol\":483:503  address public admin */\n    tag_7:\n      tag_27\n      tag_28\n      jump\t// in\n    tag_27:\n      mload(0x40)\n      tag_29\n      swap2\n      swap1\n      tag_30\n      jump\t// in\n    tag_29:\n      mload(0x40)\n      dup1\n      swap2\n      sub\n      swap1\n      return\n        /* \"SchoolCertificate.sol\":1414:1936  function issueCertificate(... */\n    tag_11:\n        /* \"SchoolCertificate.sol\":896:901  admin */\n      0x01\n      0x00\n      swap1\n      sload\n      swap1\n      0x0100\n      exp\n      swap1\n      div\n      0xffffffffffffffffffffffffffffffffffffffff\n      and\n        /* \"SchoolCertificate.sol\":882:901  msg.sender == admin */\n      0xffffffffffffffffffffffffffffffffffffffff\n      and\n        /* \"SchoolCertificate.sol\":882:892  msg.sender */\n      caller\n        /* \"SchoolCertificate.sol\":882:901  msg.sender == admin */\n      0xffffffffffffffffffffffffffffffffffffffff\n      and\n      eq\n        /* \"SchoolCertificate.sol\":874:953  require(msg.sender == admin, \"Only the administrator can perform this action.\") */\n      tag_32\n      jumpi\n      mload(0x40)\n      0x08c379a000000000000000000000000000000000000000000000000000000000\n      dup2\n      mstore\n      0x04\n      add\n      tag_33\n      swap1\n      tag_34\n      jump\t// in\n    tag_33:\n      mload(0x40)\n      dup1\n      swap2\n      sub\n      swap1\n      revert\n    tag_32:\n        /* \"SchoolCertificate.sol\":1652:1664  certificates */\n      0x00\n        /* \"SchoolCertificate.sol\":1665:1674  studentId */\n      dup6\n        /* \"SchoolCertificate.sol\":1652:1675  certificates[studentId] */\n      mload(0x40)\n      tag_36\n      swap2\n      swap1\n      tag_37\n      jump\t// in\n    tag_36:\n      swap1\n      dup2\n      mstore\n      0x20\n      add\n      mload(0x40)\n      dup1\n      swap2\n      sub\n      swap1\n      keccak256\n        /* \"SchoolCertificate.sol\":1652:1682  certificates[studentId].exists */\n      0x04\n      add\n      0x00\n      swap1\n      sload\n      swap1\n      0x0100\n      exp\n      swap1\n      div\n      0xff\n      and\n        /* \"SchoolCertificate.sol\":1651:1682  !certificates[studentId].exists */\n      iszero\n        /* \"SchoolCertificate.sol\":1643:1734  require(!certificates[studentId].exists, \"Certificate already exists for this student ID.\") */\n      tag_38\n      jumpi\n      mload(0x40)\n      0x08c379a000000000000000000000000000000000000000000000000000000000\n      dup2\n      mstore\n      0x04\n      add\n      tag_39\n      swap1\n      tag_40\n      jump\t// in\n    tag_39:\n      mload(0x40)\n      dup1\n      swap2\n      sub\n      swap1\n      revert\n    tag_38:\n        /* \"SchoolCertificate.sol\":1771:1836  Certificate(studentName, courseName, grade, dateOfIssuance, true) */\n      mload(0x40)\n      dup1\n      0xa0\n      add\n      0x40\n      mstore\n      dup1\n        /* \"SchoolCertificate.sol\":1783:1794  studentName */\n      dup6\n        /* \"SchoolCertificate.sol\":1771:1836  Certificate(studentName, courseName, grade, dateOfIssuance, true) */\n      dup2\n      mstore\n      0x20\n      add\n        /* \"SchoolCertificate.sol\":1796:1806  courseName */\n      dup5\n        /* \"SchoolCertificate.sol\":1771:1836  Certificate(studentName, courseName, grade, dateOfIssuance, true) */\n      dup2\n      mstore\n      0x20\n      add\n        /* \"SchoolCertificate.sol\":1808:1813  grade */\n      dup4\n        /* \"SchoolCertificate.sol\":1771:1836  Certificate(studentName, courseName, grade, dateOfIssuance, true) */\n      dup2\n      mstore\n      0x20\n      add\n        /* \"SchoolCertificate.sol\":1815:1829  dateOfIssuance */\n      dup3\n        /* \"SchoolCertificate.sol\":1771:1836  Certificate(studentName, courseName, grade, dateOfIssuance, true) */\n      dup2\n      mstore\n      0x20\n      add\n        /* \"SchoolCertificate.sol\":1831:1835  true */\n      0x01\n        /* \"SchoolCertificate.sol\":1771:1836  Certificate(studentName, courseName, grade, dateOfIssuance, true) */\n      iszero\n      iszero\n      dup2\n      mstore\n      pop\n        /* \"SchoolCertificate.sol\":1745:1757  certificates */\n      0x00\n        /* \"SchoolCertificate.sol\":1758:1767  studentId */\n      dup7\n        /* \"SchoolCertificate.sol\":1745:1768  certificates[studentId] */\n      mload(0x40)\n      tag_41\n      swap2\n      swap1\n      tag_37\n      jump\t// in\n    tag_41:\n      swap1\n      dup2\n      mstore\n      0x20\n      add\n      mload(0x40)\n      dup1\n      swap2\n      sub\n      swap1\n      keccak256\n        /* \"SchoolCertificate.sol\":1745:1836  certificates[studentId] = Certificate(studentName, courseName, grade, dateOfIssuance, true) */\n      0x00\n      dup3\n      add\n      mload\n      dup2\n      0x00\n      add\n      swap1\n      dup2\n      tag_42\n      swap2\n      swap1\n      tag_43\n      jump\t// in\n    tag_42:\n      pop\n      0x20\n      dup3\n      add\n      mload\n      dup2\n      0x01\n      add\n      swap1\n      dup2\n      tag_44\n      swap2\n      swap1\n      tag_43\n      jump\t// in\n    tag_44:\n      pop\n      0x40\n      dup3\n      add\n      mload\n      dup2\n      0x02\n      add\n      swap1\n      dup2\n      tag_45\n      swap2\n      swap1\n      tag_43\n      jump\t// in\n    tag_45:\n      pop\n      0x60\n      dup3\n      add\n      mload\n      dup2\n      0x03\n      add\n      sstore\n      0x80\n      dup3\n      add\n      mload\n      dup2\n      0x04\n      add\n      exp(0x0100, 0x00)\n      dup2\n      sload\n      dup2\n      0xff\n      mul\n      not\n      and\n      swap1\n      dup4\n      iszero\n      iszero\n      mul\n      or\n      swap1\n      sstore\n      pop\n      swap1\n      pop\n      pop\n        /* \"SchoolCertificate.sol\":1870:1879  studentId */\n      dup5\n        /* \"SchoolCertificate.sol\":1852:1928  CertificateIssued(studentId, studentName, courseName, grade, dateOfIssuance) */\n      mload(0x40)\n      tag_46\n      swap2\n      swap1\n      tag_37\n      jump\t// in\n    tag_46:\n      mload(0x40)\n      dup1\n      swap2\n      sub\n      swap1\n      keccak256\n      0x98eb45068e1da1f9cc96add03ccb87a8e8e684d20bda8390a73c006f780ebae1\n        /* \"SchoolCertificate.sol\":1881:1892  studentName */\n      dup6\n        /* \"SchoolCertificate.sol\":1894:1904  courseName */\n      dup6\n        /* \"SchoolCertificate.sol\":1906:1911  grade */\n      dup6\n        /* \"SchoolCertificate.sol\":1913:1927  dateOfIssuance */\n      dup6\n        /* \"SchoolCertificate.sol\":1852:1928  CertificateIssued(studentId, studentName, courseName, grade, dateOfIssuance) */\n      mload(0x40)\n      tag_47\n      swap5\n      swap4\n      swap3\n      swap2\n      swap1\n      tag_26\n      jump\t// in\n    tag_47:\n      mload(0x40)\n      dup1\n      swap2\n      sub\n      swap1\n      log2\n        /* \"SchoolCertificate.sol\":1414:1936  function issueCertificate(... */\n      pop\n      pop\n      pop\n      pop\n      pop\n      jump\t// out\n        /* \"SchoolCertificate.sol\":2588:2723  function verifyCertificate(string memory studentId) public view returns (bool) {... */\n    tag_15:\n        /* \"SchoolCertificate.sol\":2661:2665  bool */\n      0x00\n        /* \"SchoolCertificate.sol\":2685:2697  certificates */\n      dup1\n        /* \"SchoolCertificate.sol\":2698:2707  studentId */\n      dup3\n        /* \"SchoolCertificate.sol\":2685:2708  certificates[studentId] */\n      mload(0x40)\n      tag_49\n      swap2\n      swap1\n      tag_37\n      jump\t// in\n    tag_49:\n      swap1\n      dup2\n      mstore\n      0x20\n      add\n      mload(0x40)\n      dup1\n      swap2\n      sub\n      swap1\n      keccak256\n        /* \"SchoolCertificate.sol\":2685:2715  certificates[studentId].exists */\n      0x04\n      add\n      0x00\n      swap1\n      sload\n      swap1\n      0x0100\n      exp\n      swap1\n      div\n      0xff\n      and\n        /* \"SchoolCertificate.sol\":2678:2715  return certificates[studentId].exists */\n      swap1\n      pop\n        /* \"SchoolCertificate.sol\":2588:2723  function verifyCertificate(string memory studentId) public view returns (bool) {... */\n      swap2\n      swap1\n      pop\n      jump\t// out\n        /* \"SchoolCertificate.sol\":1122:1366  function changeAdmin(address newAdmin) external onlyAdmin {... */\n    tag_21:\n        /* \"SchoolCertificate.sol\":896:901  admin */\n      0x01\n      0x00\n      swap1\n      sload\n      swap1\n      0x0100\n      exp\n      swap1\n      div\n      0xffffffffffffffffffffffffffffffffffffffff\n      and\n        /* \"SchoolCertificate.sol\":882:901  msg.sender == admin */\n      0xffffffffffffffffffffffffffffffffffffffff\n      and\n        /* \"SchoolCertificate.sol\":882:892  msg.sender */\n      caller\n        /* \"SchoolCertificate.sol\":882:901  msg.sender == admin */\n      0xffffffffffffffffffffffffffffffffffffffff\n      and\n      eq\n        /* \"SchoolCertificate.sol\":874:953  require(msg.sender == admin, \"Only the administrator can perform this action.\") */\n      tag_51\n      jumpi\n      mload(0x40)\n      0x08c379a000000000000000000000000000000000000000000000000000000000\n      dup2\n      mstore\n      0x04\n      add\n      tag_52\n      swap1\n      tag_34\n      jump\t// in\n    tag_52:\n      mload(0x40)\n      dup1\n      swap2\n      sub\n      swap1\n      revert\n    tag_51:\n        /* \"SchoolCertificate.sol\":1219:1220  0 */\n      0x00\n        /* \"SchoolCertificate.sol\":1199:1221  newAdmin != address(0) */\n      0xffffffffffffffffffffffffffffffffffffffff\n      and\n        /* \"SchoolCertificate.sol\":1199:1207  newAdmin */\n      dup2\n        /* \"SchoolCertificate.sol\":1199:1221  newAdmin != address(0) */\n      0xffffffffffffffffffffffffffffffffffffffff\n      and\n      sub\n        /* \"SchoolCertificate.sol\":1191:1248  require(newAdmin != address(0), \"Invalid admin address.\") */\n      tag_54\n      jumpi\n      mload(0x40)\n      0x08c379a000000000000000000000000000000000000000000000000000000000\n      dup2\n      mstore\n      0x04\n      add\n      tag_55\n      swap1\n      tag_56\n      jump\t// in\n    tag_55:\n      mload(0x40)\n      dup1\n      swap2\n      sub\n      swap1\n      revert\n    tag_54:\n        /* \"SchoolCertificate.sol\":1259:1275  address oldAdmin */\n      0x00\n        /* \"SchoolCertificate.sol\":1278:1283  admin */\n      0x01\n      0x00\n      swap1\n      sload\n      swap1\n      0x0100\n      exp\n      swap1\n      div\n      0xffffffffffffffffffffffffffffffffffffffff\n      and\n        /* \"SchoolCertificate.sol\":1259:1283  address oldAdmin = admin */\n      swap1\n      pop\n        /* \"SchoolCertificate.sol\":1302:1310  newAdmin */\n      dup2\n        /* \"SchoolCertificate.sol\":1294:1299  admin */\n      0x01\n      0x00\n        /* \"SchoolCertificate.sol\":1294:1310  admin = newAdmin */\n      0x0100\n      exp\n      dup2\n      sload\n      dup2\n      0xffffffffffffffffffffffffffffffffffffffff\n      mul\n      not\n      and\n      swap1\n      dup4\n      0xffffffffffffffffffffffffffffffffffffffff\n      and\n      mul\n      or\n      swap1\n      sstore\n      pop\n        /* \"SchoolCertificate.sol\":1349:1357  newAdmin */\n      dup2\n        /* \"SchoolCertificate.sol\":1326:1358  AdminChanged(oldAdmin, newAdmin) */\n      0xffffffffffffffffffffffffffffffffffffffff\n      and\n        /* \"SchoolCertificate.sol\":1339:1347  oldAdmin */\n      dup2\n        /* \"SchoolCertificate.sol\":1326:1358  AdminChanged(oldAdmin, newAdmin) */\n      0xffffffffffffffffffffffffffffffffffffffff\n      and\n      0x7e644d79422f17c01e4894b5f4f588d331ebfa28653d42ae832dc59e38c9798f\n      mload(0x40)\n      mload(0x40)\n      dup1\n      swap2\n      sub\n      swap1\n      log3\n        /* \"SchoolCertificate.sol\":1180:1366  {... */\n      pop\n        /* \"SchoolCertificate.sol\":1122:1366  function changeAdmin(address newAdmin) external onlyAdmin {... */\n      pop\n      jump\t// out\n        /* \"SchoolCertificate.sol\":2001:2519  function getCertificate(string memory studentId)... */\n    tag_24:\n        /* \"SchoolCertificate.sol\":2112:2137  string memory studentName */\n      0x60\n        /* \"SchoolCertificate.sol\":2152:2176  string memory courseName */\n      dup1\n        /* \"SchoolCertificate.sol\":2191:2210  string memory grade */\n      0x60\n        /* \"SchoolCertificate.sol\":2225:2247  uint256 dateOfIssuance */\n      0x00\n        /* \"SchoolCertificate.sol\":2283:2295  certificates */\n      dup1\n        /* \"SchoolCertificate.sol\":2296:2305  studentId */\n      dup6\n        /* \"SchoolCertificate.sol\":2283:2306  certificates[studentId] */\n      mload(0x40)\n      tag_58\n      swap2\n      swap1\n      tag_37\n      jump\t// in\n    tag_58:\n      swap1\n      dup2\n      mstore\n      0x20\n      add\n      mload(0x40)\n      dup1\n      swap2\n      sub\n      swap1\n      keccak256\n        /* \"SchoolCertificate.sol\":2283:2313  certificates[studentId].exists */\n      0x04\n      add\n      0x00\n      swap1\n      sload\n      swap1\n      0x0100\n      exp\n      swap1\n      div\n      0xff\n      and\n        /* \"SchoolCertificate.sol\":2275:2365  require(certificates[studentId].exists, \"Certificate does not exist for this student ID.\") */\n      tag_59\n      jumpi\n      mload(0x40)\n      0x08c379a000000000000000000000000000000000000000000000000000000000\n      dup2\n      mstore\n      0x04\n      add\n      tag_60\n      swap1\n      tag_61\n      jump\t// in\n    tag_60:\n      mload(0x40)\n      dup1\n      swap2\n      sub\n      swap1\n      revert\n    tag_59:\n        /* \"SchoolCertificate.sol\":2376:2399  Certificate memory cert */\n      0x00\n        /* \"SchoolCertificate.sol\":2402:2414  certificates */\n      dup1\n        /* \"SchoolCertificate.sol\":2415:2424  studentId */\n      dup7\n        /* \"SchoolCertificate.sol\":2402:2425  certificates[studentId] */\n      mload(0x40)\n      tag_62\n      swap2\n      swap1\n      tag_37\n      jump\t// in\n    tag_62:\n      swap1\n      dup2\n      mstore\n      0x20\n      add\n      mload(0x40)\n      dup1\n      swap2\n      sub\n      swap1\n      keccak256\n        /* \"SchoolCertificate.sol\":2376:2425  Certificate memory cert = certificates[studentId] */\n      mload(0x40)\n      dup1\n      0xa0\n      add\n      0x40\n      mstore\n      swap1\n      dup2\n      0x00\n      dup3\n      add\n      dup1\n      sload\n      tag_63\n      swap1\n      tag_64\n      jump\t// in\n    tag_63:\n      dup1\n      0x1f\n      add\n      0x20\n      dup1\n      swap2\n      div\n      mul\n      0x20\n      add\n      mload(0x40)\n      swap1\n      dup2\n      add\n      0x40\n      mstore\n      dup1\n      swap3\n      swap2\n      swap1\n      dup2\n      dup2\n      mstore\n      0x20\n      add\n      dup3\n      dup1\n      sload\n      tag_65\n      swap1\n      tag_64\n      jump\t// in\n    tag_65:\n      dup1\n      iszero\n      tag_66\n      jumpi\n      dup1\n      0x1f\n      lt\n      tag_67\n      jumpi\n      0x0100\n      dup1\n      dup4\n      sload\n      div\n      mul\n      dup4\n      mstore\n      swap2\n      0x20\n      add\n      swap2\n      jump(tag_66)\n    tag_67:\n      dup3\n      add\n      swap2\n      swap1\n      0x00\n      mstore\n      keccak256(0x00, 0x20)\n      swap1\n    tag_68:\n      dup2\n      sload\n      dup2\n      mstore\n      swap1\n      0x01\n      add\n      swap1\n      0x20\n      add\n      dup1\n      dup4\n      gt\n      tag_68\n      jumpi\n      dup3\n      swap1\n      sub\n      0x1f\n      and\n      dup3\n      add\n      swap2\n    tag_66:\n      pop\n      pop\n      pop\n      pop\n      pop\n      dup2\n      mstore\n      0x20\n      add\n      0x01\n      dup3\n      add\n      dup1\n      sload\n      tag_69\n      swap1\n      tag_64\n      jump\t// in\n    tag_69:\n      dup1\n      0x1f\n      add\n      0x20\n      dup1\n      swap2\n      div\n      mul\n      0x20\n      add\n      mload(0x40)\n      swap1\n      dup2\n      add\n      0x40\n      mstore\n      dup1\n      swap3\n      swap2\n      swap1\n      dup2\n      dup2\n      mstore\n      0x20\n      add\n      dup3\n      dup1\n      sload\n      tag_70\n      swap1\n      tag_64\n      jump\t// in\n    tag_70:\n      dup1\n      iszero\n      tag_71\n      jumpi\n      dup1\n      0x1f\n      lt\n      tag_72\n      jumpi\n      0x0100\n      dup1\n      dup4\n      sload\n      div\n      mul\n      dup4\n      mstore\n      swap2\n      0x20\n      add\n      swap2\n      jump(tag_71)\n    tag_72:\n      dup3\n      add\n      swap2\n      swap1\n      0x00\n      mstore\n      keccak256(0x00, 0x20)\n      swap1\n    tag_73:\n      dup2\n      sload\n      dup2\n      mstore\n      swap1\n      0x01\n      add\n      swap1\n      0x20\n      add\n      dup1\n      dup4\n      gt\n      tag_73\n      jumpi\n      dup3\n      swap1\n      sub\n      0x1f\n      and\n      dup3\n      add\n      swap2\n    tag_71:\n      pop\n      pop\n      pop\n      pop\n      pop\n      dup2\n      mstore\n      0x20\n      add\n      0x02\n      dup3\n      add\n      dup1\n      sload\n      tag_74\n      swap1\n      tag_64\n      jump\t// in\n    tag_74:\n      dup1\n      0x1f\n      add\n      0x20\n      dup1\n      swap2\n      div\n      mul\n      0x20\n      add\n      mload(0x40)\n      swap1\n      dup2\n      add\n      0x40\n      mstore\n      dup1\n      swap3\n      swap2\n      swap1\n      dup2\n      dup2\n      mstore\n      0x20\n      add\n      dup3\n      dup1\n      sload\n      tag_75\n      swap1\n      tag_64\n      jump\t// in\n    tag_75:\n      dup1\n      iszero\n      tag_76\n      jumpi\n      dup1\n      0x1f\n      lt\n      tag_77\n      jumpi\n      0x0100\n      dup1\n      dup4\n      sload\n      div\n      mul\n      dup4\n      mstore\n      swap2\n      0x20\n      add\n      swap2\n      jump(tag_76)\n    tag_77:\n      dup3\n      add\n      swap2\n      swap1\n      0x00\n      mstore\n      keccak256(0x00, 0x20)\n      swap1\n    tag_78:\n      dup2\n      sload\n      dup2\n      mstore\n      swap1\n      0x01\n      add\n      swap1\n      0x20\n      add\n      dup1\n      dup4\n      gt\n      tag_78\n      jumpi\n      dup3\n      swap1\n      sub\n      0x1f\n      and\n      dup3\n      add\n      swap2\n    tag_76:\n      pop\n      pop\n      pop\n      pop\n      pop\n      dup2\n      mstore\n      0x20\n      add\n      0x03\n      dup3\n      add\n      sload\n      dup2\n      mstore\n      0x20\n      add\n      0x04\n      dup3\n      add\n      0x00\n      swap1\n      sload\n      swap1\n      0x0100\n      exp\n      swap1\n      div\n      0xff\n      and\n      iszero\n      iszero\n      iszero\n      iszero\n      dup2\n      mstore\n      pop\n      pop\n      swap1\n      pop\n        /* \"SchoolCertificate.sol\":2444:2448  cert */\n      dup1\n        /* \"SchoolCertificate.sol\":2444:2460  cert.studentName */\n      0x00\n      add\n      mload\n        /* \"SchoolCertificate.sol\":2462:2466  cert */\n      dup2\n        /* \"SchoolCertificate.sol\":2462:2477  cert.courseName */\n      0x20\n      add\n      mload\n        /* \"SchoolCertificate.sol\":2479:2483  cert */\n      dup3\n        /* \"SchoolCertificate.sol\":2479:2489  cert.grade */\n      0x40\n      add\n      mload\n        /* \"SchoolCertificate.sol\":2491:2495  cert */\n      dup4\n        /* \"SchoolCertificate.sol\":2491:2510  cert.dateOfIssuance */\n      0x60\n      add\n      mload\n        /* \"SchoolCertificate.sol\":2436:2511  return (cert.studentName, cert.courseName, cert.grade, cert.dateOfIssuance) */\n      swap5\n      pop\n      swap5\n      pop\n      swap5\n      pop\n      swap5\n      pop\n      pop\n        /* \"SchoolCertificate.sol\":2001:2519  function getCertificate(string memory studentId)... */\n      swap2\n      swap4\n      pop\n      swap2\n      swap4\n      jump\t// out\n        /* \"SchoolCertificate.sol\":483:503  address public admin */\n    tag_28:\n      0x01\n      0x00\n      swap1\n      sload\n      swap1\n      0x0100\n      exp\n      swap1\n      div\n      0xffffffffffffffffffffffffffffffffffffffff\n      and\n      dup2\n      jump\t// out\n        /* \"#utility.yul\":7:82   */\n    tag_79:\n        /* \"#utility.yul\":40:46   */\n      0x00\n        /* \"#utility.yul\":73:75   */\n      0x40\n        /* \"#utility.yul\":67:76   */\n      mload\n        /* \"#utility.yul\":57:76   */\n      swap1\n      pop\n        /* \"#utility.yul\":7:82   */\n      swap1\n      jump\t// out\n        /* \"#utility.yul\":88:205   */\n    tag_80:\n        /* \"#utility.yul\":197:198   */\n      0x00\n        /* \"#utility.yul\":194:195   */\n      dup1\n        /* \"#utility.yul\":187:199   */\n      revert\n        /* \"#utility.yul\":211:328   */\n    tag_81:\n        /* \"#utility.yul\":320:321   */\n      0x00\n        /* \"#utility.yul\":317:318   */\n      dup1\n        /* \"#utility.yul\":310:322   */\n      revert\n        /* \"#utility.yul\":334:451   */\n    tag_82:\n        /* \"#utility.yul\":443:444   */\n      0x00\n        /* \"#utility.yul\":440:441   */\n      dup1\n        /* \"#utility.yul\":433:445   */\n      revert\n        /* \"#utility.yul\":457:574   */\n    tag_83:\n        /* \"#utility.yul\":566:567   */\n      0x00\n        /* \"#utility.yul\":563:564   */\n      dup1\n        /* \"#utility.yul\":556:568   */\n      revert\n        /* \"#utility.yul\":580:682   */\n    tag_84:\n        /* \"#utility.yul\":621:627   */\n      0x00\n        /* \"#utility.yul\":672:674   */\n      0x1f\n        /* \"#utility.yul\":668:675   */\n      not\n        /* \"#utility.yul\":663:665   */\n      0x1f\n        /* \"#utility.yul\":656:661   */\n      dup4\n        /* \"#utility.yul\":652:666   */\n      add\n        /* \"#utility.yul\":648:676   */\n      and\n        /* \"#utility.yul\":638:676   */\n      swap1\n      pop\n        /* \"#utility.yul\":580:682   */\n      swap2\n      swap1\n      pop\n      jump\t// out\n        /* \"#utility.yul\":688:868   */\n    tag_85:\n        /* \"#utility.yul\":736:813   */\n      0x4e487b7100000000000000000000000000000000000000000000000000000000\n        /* \"#utility.yul\":733:734   */\n      0x00\n        /* \"#utility.yul\":726:814   */\n      mstore\n        /* \"#utility.yul\":833:837   */\n      0x41\n        /* \"#utility.yul\":830:831   */\n      0x04\n        /* \"#utility.yul\":823:838   */\n      mstore\n        /* \"#utility.yul\":857:861   */\n      0x24\n        /* \"#utility.yul\":854:855   */\n      0x00\n        /* \"#utility.yul\":847:862   */\n      revert\n        /* \"#utility.yul\":874:1155   */\n    tag_86:\n        /* \"#utility.yul\":957:984   */\n      tag_142\n        /* \"#utility.yul\":979:983   */\n      dup3\n        /* \"#utility.yul\":957:984   */\n      tag_84\n      jump\t// in\n    tag_142:\n        /* \"#utility.yul\":949:955   */\n      dup2\n        /* \"#utility.yul\":945:985   */\n      add\n        /* \"#utility.yul\":1087:1093   */\n      dup2\n        /* \"#utility.yul\":1075:1085   */\n      dup2\n        /* \"#utility.yul\":1072:1094   */\n      lt\n        /* \"#utility.yul\":1051:1069   */\n      0xffffffffffffffff\n        /* \"#utility.yul\":1039:1049   */\n      dup3\n        /* \"#utility.yul\":1036:1070   */\n      gt\n        /* \"#utility.yul\":1033:1095   */\n      or\n        /* \"#utility.yul\":1030:1118   */\n      iszero\n      tag_143\n      jumpi\n        /* \"#utility.yul\":1098:1116   */\n      tag_144\n      tag_85\n      jump\t// in\n    tag_144:\n        /* \"#utility.yul\":1030:1118   */\n    tag_143:\n        /* \"#utility.yul\":1138:1148   */\n      dup1\n        /* \"#utility.yul\":1134:1136   */\n      0x40\n        /* \"#utility.yul\":1127:1149   */\n      mstore\n        /* \"#utility.yul\":917:1155   */\n      pop\n        /* \"#utility.yul\":874:1155   */\n      pop\n      pop\n      jump\t// out\n        /* \"#utility.yul\":1161:1290   */\n    tag_87:\n        /* \"#utility.yul\":1195:1201   */\n      0x00\n        /* \"#utility.yul\":1222:1242   */\n      tag_146\n      tag_79\n      jump\t// in\n    tag_146:\n        /* \"#utility.yul\":1212:1242   */\n      swap1\n      pop\n        /* \"#utility.yul\":1251:1284   */\n      tag_147\n        /* \"#utility.yul\":1279:1283   */\n      dup3\n        /* \"#utility.yul\":1271:1277   */\n      dup3\n        /* \"#utility.yul\":1251:1284   */\n      tag_86\n      jump\t// in\n    tag_147:\n        /* \"#utility.yul\":1161:1290   */\n      swap2\n      swap1\n      pop\n      jump\t// out\n        /* \"#utility.yul\":1296:1604   */\n    tag_88:\n        /* \"#utility.yul\":1358:1362   */\n      0x00\n        /* \"#utility.yul\":1448:1466   */\n      0xffffffffffffffff\n        /* \"#utility.yul\":1440:1446   */\n      dup3\n        /* \"#utility.yul\":1437:1467   */\n      gt\n        /* \"#utility.yul\":1434:1490   */\n      iszero\n      tag_149\n      jumpi\n        /* \"#utility.yul\":1470:1488   */\n      tag_150\n      tag_85\n      jump\t// in\n    tag_150:\n        /* \"#utility.yul\":1434:1490   */\n    tag_149:\n        /* \"#utility.yul\":1508:1537   */\n      tag_151\n        /* \"#utility.yul\":1530:1536   */\n      dup3\n        /* \"#utility.yul\":1508:1537   */\n      tag_84\n      jump\t// in\n    tag_151:\n        /* \"#utility.yul\":1500:1537   */\n      swap1\n      pop\n        /* \"#utility.yul\":1592:1596   */\n      0x20\n        /* \"#utility.yul\":1586:1590   */\n      dup2\n        /* \"#utility.yul\":1582:1597   */\n      add\n        /* \"#utility.yul\":1574:1597   */\n      swap1\n      pop\n        /* \"#utility.yul\":1296:1604   */\n      swap2\n      swap1\n      pop\n      jump\t// out\n        /* \"#utility.yul\":1610:1758   */\n    tag_89:\n        /* \"#utility.yul\":1708:1714   */\n      dup3\n        /* \"#utility.yul\":1703:1706   */\n      dup2\n        /* \"#utility.yul\":1698:1701   */\n      dup4\n        /* \"#utility.yul\":1685:1715   */\n      calldatacopy\n        /* \"#utility.yul\":1749:1750   */\n      0x00\n        /* \"#utility.yul\":1740:1746   */\n      dup4\n        /* \"#utility.yul\":1735:1738   */\n      dup4\n        /* \"#utility.yul\":1731:1747   */\n      add\n        /* \"#utility.yul\":1724:1751   */\n      mstore\n        /* \"#utility.yul\":1610:1758   */\n      pop\n      pop\n      pop\n      jump\t// out\n        /* \"#utility.yul\":1764:2189   */\n    tag_90:\n        /* \"#utility.yul\":1842:1847   */\n      0x00\n        /* \"#utility.yul\":1867:1933   */\n      tag_154\n        /* \"#utility.yul\":1883:1932   */\n      tag_155\n        /* \"#utility.yul\":1925:1931   */\n      dup5\n        /* \"#utility.yul\":1883:1932   */\n      tag_88\n      jump\t// in\n    tag_155:\n        /* \"#utility.yul\":1867:1933   */\n      tag_87\n      jump\t// in\n    tag_154:\n        /* \"#utility.yul\":1858:1933   */\n      swap1\n      pop\n        /* \"#utility.yul\":1956:1962   */\n      dup3\n        /* \"#utility.yul\":1949:1954   */\n      dup2\n        /* \"#utility.yul\":1942:1963   */\n      mstore\n        /* \"#utility.yul\":1994:1998   */\n      0x20\n        /* \"#utility.yul\":1987:1992   */\n      dup2\n        /* \"#utility.yul\":1983:1999   */\n      add\n        /* \"#utility.yul\":2032:2035   */\n      dup5\n        /* \"#utility.yul\":2023:2029   */\n      dup5\n        /* \"#utility.yul\":2018:2021   */\n      dup5\n        /* \"#utility.yul\":2014:2030   */\n      add\n        /* \"#utility.yul\":2011:2036   */\n      gt\n        /* \"#utility.yul\":2008:2120   */\n      iszero\n      tag_156\n      jumpi\n        /* \"#utility.yul\":2039:2118   */\n      tag_157\n      tag_83\n      jump\t// in\n    tag_157:\n        /* \"#utility.yul\":2008:2120   */\n    tag_156:\n        /* \"#utility.yul\":2129:2183   */\n      tag_158\n        /* \"#utility.yul\":2176:2182   */\n      dup5\n        /* \"#utility.yul\":2171:2174   */\n      dup3\n        /* \"#utility.yul\":2166:2169   */\n      dup6\n        /* \"#utility.yul\":2129:2183   */\n      tag_89\n      jump\t// in\n    tag_158:\n        /* \"#utility.yul\":1848:2189   */\n      pop\n        /* \"#utility.yul\":1764:2189   */\n      swap4\n      swap3\n      pop\n      pop\n      pop\n      jump\t// out\n        /* \"#utility.yul\":2209:2549   */\n    tag_91:\n        /* \"#utility.yul\":2265:2270   */\n      0x00\n        /* \"#utility.yul\":2314:2317   */\n      dup3\n        /* \"#utility.yul\":2307:2311   */\n      0x1f\n        /* \"#utility.yul\":2299:2305   */\n      dup4\n        /* \"#utility.yul\":2295:2312   */\n      add\n        /* \"#utility.yul\":2291:2318   */\n      slt\n        /* \"#utility.yul\":2281:2403   */\n      tag_160\n      jumpi\n        /* \"#utility.yul\":2322:2401   */\n      tag_161\n      tag_82\n      jump\t// in\n    tag_161:\n        /* \"#utility.yul\":2281:2403   */\n    tag_160:\n        /* \"#utility.yul\":2439:2445   */\n      dup2\n        /* \"#utility.yul\":2426:2446   */\n      calldataload\n        /* \"#utility.yul\":2464:2543   */\n      tag_162\n        /* \"#utility.yul\":2539:2542   */\n      dup5\n        /* \"#utility.yul\":2531:2537   */\n      dup3\n        /* \"#utility.yul\":2524:2528   */\n      0x20\n        /* \"#utility.yul\":2516:2522   */\n      dup7\n        /* \"#utility.yul\":2512:2529   */\n      add\n        /* \"#utility.yul\":2464:2543   */\n      tag_90\n      jump\t// in\n    tag_162:\n        /* \"#utility.yul\":2455:2543   */\n      swap2\n      pop\n        /* \"#utility.yul\":2271:2549   */\n      pop\n        /* \"#utility.yul\":2209:2549   */\n      swap3\n      swap2\n      pop\n      pop\n      jump\t// out\n        /* \"#utility.yul\":2555:2632   */\n    tag_92:\n        /* \"#utility.yul\":2592:2599   */\n      0x00\n        /* \"#utility.yul\":2621:2626   */\n      dup2\n        /* \"#utility.yul\":2610:2626   */\n      swap1\n      pop\n        /* \"#utility.yul\":2555:2632   */\n      swap2\n      swap1\n      pop\n      jump\t// out\n        /* \"#utility.yul\":2638:2760   */\n    tag_93:\n        /* \"#utility.yul\":2711:2735   */\n      tag_165\n        /* \"#utility.yul\":2729:2734   */\n      dup2\n        /* \"#utility.yul\":2711:2735   */\n      tag_92\n      jump\t// in\n    tag_165:\n        /* \"#utility.yul\":2704:2709   */\n      dup2\n        /* \"#utility.yul\":2701:2736   */\n      eq\n        /* \"#utility.yul\":2691:2754   */\n      tag_166\n      jumpi\n        /* \"#utility.yul\":2750:2751   */\n      0x00\n        /* \"#utility.yul\":2747:2748   */\n      dup1\n        /* \"#utility.yul\":2740:2752   */\n      revert\n        /* \"#utility.yul\":2691:2754   */\n    tag_166:\n        /* \"#utility.yul\":2638:2760   */\n      pop\n      jump\t// out\n        /* \"#utility.yul\":2766:2905   */\n    tag_94:\n        /* \"#utility.yul\":2812:2817   */\n      0x00\n        /* \"#utility.yul\":2850:2856   */\n      dup2\n        /* \"#utility.yul\":2837:2857   */\n      calldataload\n        /* \"#utility.yul\":2828:2857   */\n      swap1\n      pop\n        /* \"#utility.yul\":2866:2899   */\n      tag_168\n        /* \"#utility.yul\":2893:2898   */\n      dup2\n        /* \"#utility.yul\":2866:2899   */\n      tag_93\n      jump\t// in\n    tag_168:\n        /* \"#utility.yul\":2766:2905   */\n      swap3\n      swap2\n      pop\n      pop\n      jump\t// out\n        /* \"#utility.yul\":2911:4542   */\n    tag_10:\n        /* \"#utility.yul\":3046:3052   */\n      0x00\n        /* \"#utility.yul\":3054:3060   */\n      dup1\n        /* \"#utility.yul\":3062:3068   */\n      0x00\n        /* \"#utility.yul\":3070:3076   */\n      dup1\n        /* \"#utility.yul\":3078:3084   */\n      0x00\n        /* \"#utility.yul\":3127:3130   */\n      0xa0\n        /* \"#utility.yul\":3115:3124   */\n      dup7\n        /* \"#utility.yul\":3106:3113   */\n      dup9\n        /* \"#utility.yul\":3102:3125   */\n      sub\n        /* \"#utility.yul\":3098:3131   */\n      slt\n        /* \"#utility.yul\":3095:3215   */\n      iszero\n      tag_170\n      jumpi\n        /* \"#utility.yul\":3134:3213   */\n      tag_171\n      tag_80\n      jump\t// in\n    tag_171:\n        /* \"#utility.yul\":3095:3215   */\n    tag_170:\n        /* \"#utility.yul\":3282:3283   */\n      0x00\n        /* \"#utility.yul\":3271:3280   */\n      dup7\n        /* \"#utility.yul\":3267:3284   */\n      add\n        /* \"#utility.yul\":3254:3285   */\n      calldataload\n        /* \"#utility.yul\":3312:3330   */\n      0xffffffffffffffff\n        /* \"#utility.yul\":3304:3310   */\n      dup2\n        /* \"#utility.yul\":3301:3331   */\n      gt\n        /* \"#utility.yul\":3298:3415   */\n      iszero\n      tag_172\n      jumpi\n        /* \"#utility.yul\":3334:3413   */\n      tag_173\n      tag_81\n      jump\t// in\n    tag_173:\n        /* \"#utility.yul\":3298:3415   */\n    tag_172:\n        /* \"#utility.yul\":3439:3502   */\n      tag_174\n        /* \"#utility.yul\":3494:3501   */\n      dup9\n        /* \"#utility.yul\":3485:3491   */\n      dup3\n        /* \"#utility.yul\":3474:3483   */\n      dup10\n        /* \"#utility.yul\":3470:3492   */\n      add\n        /* \"#utility.yul\":3439:3502   */\n      tag_91\n      jump\t// in\n    tag_174:\n        /* \"#utility.yul\":3429:3502   */\n      swap6\n      pop\n        /* \"#utility.yul\":3225:3512   */\n      pop\n        /* \"#utility.yul\":3579:3581   */\n      0x20\n        /* \"#utility.yul\":3568:3577   */\n      dup7\n        /* \"#utility.yul\":3564:3582   */\n      add\n        /* \"#utility.yul\":3551:3583   */\n      calldataload\n        /* \"#utility.yul\":3610:3628   */\n      0xffffffffffffffff\n        /* \"#utility.yul\":3602:3608   */\n      dup2\n        /* \"#utility.yul\":3599:3629   */\n      gt\n        /* \"#utility.yul\":3596:3713   */\n      iszero\n      tag_175\n      jumpi\n        /* \"#utility.yul\":3632:3711   */\n      tag_176\n      tag_81\n      jump\t// in\n    tag_176:\n        /* \"#utility.yul\":3596:3713   */\n    tag_175:\n        /* \"#utility.yul\":3737:3800   */\n      tag_177\n        /* \"#utility.yul\":3792:3799   */\n      dup9\n        /* \"#utility.yul\":3783:3789   */\n      dup3\n        /* \"#utility.yul\":3772:3781   */\n      dup10\n        /* \"#utility.yul\":3768:3790   */\n      add\n        /* \"#utility.yul\":3737:3800   */\n      tag_91\n      jump\t// in\n    tag_177:\n        /* \"#utility.yul\":3727:3800   */\n      swap5\n      pop\n        /* \"#utility.yul\":3522:3810   */\n      pop\n        /* \"#utility.yul\":3877:3879   */\n      0x40\n        /* \"#utility.yul\":3866:3875   */\n      dup7\n        /* \"#utility.yul\":3862:3880   */\n      add\n        /* \"#utility.yul\":3849:3881   */\n      calldataload\n        /* \"#utility.yul\":3908:3926   */\n      0xffffffffffffffff\n        /* \"#utility.yul\":3900:3906   */\n      dup2\n        /* \"#utility.yul\":3897:3927   */\n      gt\n        /* \"#utility.yul\":3894:4011   */\n      iszero\n      tag_178\n      jumpi\n        /* \"#utility.yul\":3930:4009   */\n      tag_179\n      tag_81\n      jump\t// in\n    tag_179:\n        /* \"#utility.yul\":3894:4011   */\n    tag_178:\n        /* \"#utility.yul\":4035:4098   */\n      tag_180\n        /* \"#utility.yul\":4090:4097   */\n      dup9\n        /* \"#utility.yul\":4081:4087   */\n      dup3\n        /* \"#utility.yul\":4070:4079   */\n      dup10\n        /* \"#utility.yul\":4066:4088   */\n      add\n        /* \"#utility.yul\":4035:4098   */\n      tag_91\n      jump\t// in\n    tag_180:\n        /* \"#utility.yul\":4025:4098   */\n      swap4\n      pop\n        /* \"#utility.yul\":3820:4108   */\n      pop\n        /* \"#utility.yul\":4175:4177   */\n      0x60\n        /* \"#utility.yul\":4164:4173   */\n      dup7\n        /* \"#utility.yul\":4160:4178   */\n      add\n        /* \"#utility.yul\":4147:4179   */\n      calldataload\n        /* \"#utility.yul\":4206:4224   */\n      0xffffffffffffffff\n        /* \"#utility.yul\":4198:4204   */\n      dup2\n        /* \"#utility.yul\":4195:4225   */\n      gt\n        /* \"#utility.yul\":4192:4309   */\n      iszero\n      tag_181\n      jumpi\n        /* \"#utility.yul\":4228:4307   */\n      tag_182\n      tag_81\n      jump\t// in\n    tag_182:\n        /* \"#utility.yul\":4192:4309   */\n    tag_181:\n        /* \"#utility.yul\":4333:4396   */\n      tag_183\n        /* \"#utility.yul\":4388:4395   */\n      dup9\n        /* \"#utility.yul\":4379:4385   */\n      dup3\n        /* \"#utility.yul\":4368:4377   */\n      dup10\n        /* \"#utility.yul\":4364:4386   */\n      add\n        /* \"#utility.yul\":4333:4396   */\n      tag_91\n      jump\t// in\n    tag_183:\n        /* \"#utility.yul\":4323:4396   */\n      swap3\n      pop\n        /* \"#utility.yul\":4118:4406   */\n      pop\n        /* \"#utility.yul\":4445:4448   */\n      0x80\n        /* \"#utility.yul\":4472:4525   */\n      tag_184\n        /* \"#utility.yul\":4517:4524   */\n      dup9\n        /* \"#utility.yul\":4508:4514   */\n      dup3\n        /* \"#utility.yul\":4497:4506   */\n      dup10\n        /* \"#utility.yul\":4493:4515   */\n      add\n        /* \"#utility.yul\":4472:4525   */\n      tag_94\n      jump\t// in\n    tag_184:\n        /* \"#utility.yul\":4462:4525   */\n      swap2\n      pop\n        /* \"#utility.yul\":4416:4535   */\n      pop\n        /* \"#utility.yul\":2911:4542   */\n      swap3\n      swap6\n      pop\n      swap3\n      swap6\n      swap1\n      swap4\n      pop\n      jump\t// out\n        /* \"#utility.yul\":4548:5057   */\n    tag_14:\n        /* \"#utility.yul\":4617:4623   */\n      0x00\n        /* \"#utility.yul\":4666:4668   */\n      0x20\n        /* \"#utility.yul\":4654:4663   */\n      dup3\n        /* \"#utility.yul\":4645:4652   */\n      dup5\n        /* \"#utility.yul\":4641:4664   */\n      sub\n        /* \"#utility.yul\":4637:4669   */\n      slt\n        /* \"#utility.yul\":4634:4753   */\n      iszero\n      tag_186\n      jumpi\n        /* \"#utility.yul\":4672:4751   */\n      tag_187\n      tag_80\n      jump\t// in\n    tag_187:\n        /* \"#utility.yul\":4634:4753   */\n    tag_186:\n        /* \"#utility.yul\":4820:4821   */\n      0x00\n        /* \"#utility.yul\":4809:4818   */\n      dup3\n        /* \"#utility.yul\":4805:4822   */\n      add\n        /* \"#utility.yul\":4792:4823   */\n      calldataload\n        /* \"#utility.yul\":4850:4868   */\n      0xffffffffffffffff\n        /* \"#utility.yul\":4842:4848   */\n      dup2\n        /* \"#utility.yul\":4839:4869   */\n      gt\n        /* \"#utility.yul\":4836:4953   */\n      iszero\n      tag_188\n      jumpi\n        /* \"#utility.yul\":4872:4951   */\n      tag_189\n      tag_81\n      jump\t// in\n    tag_189:\n        /* \"#utility.yul\":4836:4953   */\n    tag_188:\n        /* \"#utility.yul\":4977:5040   */\n      tag_190\n        /* \"#utility.yul\":5032:5039   */\n      dup5\n        /* \"#utility.yul\":5023:5029   */\n      dup3\n        /* \"#utility.yul\":5012:5021   */\n      dup6\n        /* \"#utility.yul\":5008:5030   */\n      add\n        /* \"#utility.yul\":4977:5040   */\n      tag_91\n      jump\t// in\n    tag_190:\n        /* \"#utility.yul\":4967:5040   */\n      swap2\n      pop\n        /* \"#utility.yul\":4763:5050   */\n      pop\n        /* \"#utility.yul\":4548:5057   */\n      swap3\n      swap2\n      pop\n      pop\n      jump\t// out\n        /* \"#utility.yul\":5063:5153   */\n    tag_95:\n        /* \"#utility.yul\":5097:5104   */\n      0x00\n        /* \"#utility.yul\":5140:5145   */\n      dup2\n        /* \"#utility.yul\":5133:5146   */\n      iszero\n        /* \"#utility.yul\":5126:5147   */\n      iszero\n        /* \"#utility.yul\":5115:5147   */\n      swap1\n      pop\n        /* \"#utility.yul\":5063:5153   */\n      swap2\n      swap1\n      pop\n      jump\t// out\n        /* \"#utility.yul\":5159:5268   */\n    tag_96:\n        /* \"#utility.yul\":5240:5261   */\n      tag_193\n        /* \"#utility.yul\":5255:5260   */\n      dup2\n        /* \"#utility.yul\":5240:5261   */\n      tag_95\n      jump\t// in\n    tag_193:\n        /* \"#utility.yul\":5235:5238   */\n      dup3\n        /* \"#utility.yul\":5228:5262   */\n      mstore\n        /* \"#utility.yul\":5159:5268   */\n      pop\n      pop\n      jump\t// out\n        /* \"#utility.yul\":5274:5484   */\n    tag_17:\n        /* \"#utility.yul\":5361:5365   */\n      0x00\n        /* \"#utility.yul\":5399:5401   */\n      0x20\n        /* \"#utility.yul\":5388:5397   */\n      dup3\n        /* \"#utility.yul\":5384:5402   */\n      add\n        /* \"#utility.yul\":5376:5402   */\n      swap1\n      pop\n        /* \"#utility.yul\":5412:5477   */\n      tag_195\n        /* \"#utility.yul\":5474:5475   */\n      0x00\n        /* \"#utility.yul\":5463:5472   */\n      dup4\n        /* \"#utility.yul\":5459:5476   */\n      add\n        /* \"#utility.yul\":5450:5456   */\n      dup5\n        /* \"#utility.yul\":5412:5477   */\n      tag_96\n      jump\t// in\n    tag_195:\n        /* \"#utility.yul\":5274:5484   */\n      swap3\n      swap2\n      pop\n      pop\n      jump\t// out\n        /* \"#utility.yul\":5490:5616   */\n    tag_97:\n        /* \"#utility.yul\":5527:5534   */\n      0x00\n        /* \"#utility.yul\":5567:5609   */\n      0xffffffffffffffffffffffffffffffffffffffff\n        /* \"#utility.yul\":5560:5565   */\n      dup3\n        /* \"#utility.yul\":5556:5610   */\n      and\n        /* \"#utility.yul\":5545:5610   */\n      swap1\n      pop\n        /* \"#utility.yul\":5490:5616   */\n      swap2\n      swap1\n      pop\n      jump\t// out\n        /* \"#utility.yul\":5622:5718   */\n    tag_98:\n        /* \"#utility.yul\":5659:5666   */\n      0x00\n        /* \"#utility.yul\":5688:5712   */\n      tag_198\n        /* \"#utility.yul\":5706:5711   */\n      dup3\n        /* \"#utility.yul\":5688:5712   */\n      tag_97\n      jump\t// in\n    tag_198:\n        /* \"#utility.yul\":5677:5712   */\n      swap1\n      pop\n        /* \"#utility.yul\":5622:5718   */\n      swap2\n      swap1\n      pop\n      jump\t// out\n        /* \"#utility.yul\":5724:5846   */\n    tag_99:\n        /* \"#utility.yul\":5797:5821   */\n      tag_200\n        /* \"#utility.yul\":5815:5820   */\n      dup2\n        /* \"#utility.yul\":5797:5821   */\n      tag_98\n      jump\t// in\n    tag_200:\n        /* \"#utility.yul\":5790:5795   */\n      dup2\n        /* \"#utility.yul\":5787:5822   */\n      eq\n        /* \"#utility.yul\":5777:5840   */\n      tag_201\n      jumpi\n        /* \"#utility.yul\":5836:5837   */\n      0x00\n        /* \"#utility.yul\":5833:5834   */\n      dup1\n        /* \"#utility.yul\":5826:5838   */\n      revert\n        /* \"#utility.yul\":5777:5840   */\n    tag_201:\n        /* \"#utility.yul\":5724:5846   */\n      pop\n      jump\t// out\n        /* \"#utility.yul\":5852:5991   */\n    tag_100:\n        /* \"#utility.yul\":5898:5903   */\n      0x00\n        /* \"#utility.yul\":5936:5942   */\n      dup2\n        /* \"#utility.yul\":5923:5943   */\n      calldataload\n        /* \"#utility.yul\":5914:5943   */\n      swap1\n      pop\n        /* \"#utility.yul\":5952:5985   */\n      tag_203\n        /* \"#utility.yul\":5979:5984   */\n      dup2\n        /* \"#utility.yul\":5952:5985   */\n      tag_99\n      jump\t// in\n    tag_203:\n        /* \"#utility.yul\":5852:5991   */\n      swap3\n      swap2\n      pop\n      pop\n      jump\t// out\n        /* \"#utility.yul\":5997:6326   */\n    tag_20:\n        /* \"#utility.yul\":6056:6062   */\n      0x00\n        /* \"#utility.yul\":6105:6107   */\n      0x20\n        /* \"#utility.yul\":6093:6102   */\n      dup3\n        /* \"#utility.yul\":6084:6091   */\n      dup5\n        /* \"#utility.yul\":6080:6103   */\n      sub\n        /* \"#utility.yul\":6076:6108   */\n      slt\n        /* \"#utility.yul\":6073:6192   */\n      iszero\n      tag_205\n      jumpi\n        /* \"#utility.yul\":6111:6190   */\n      tag_206\n      tag_80\n      jump\t// in\n    tag_206:\n        /* \"#utility.yul\":6073:6192   */\n    tag_205:\n        /* \"#utility.yul\":6231:6232   */\n      0x00\n        /* \"#utility.yul\":6256:6309   */\n      tag_207\n        /* \"#utility.yul\":6301:6308   */\n      dup5\n        /* \"#utility.yul\":6292:6298   */\n      dup3\n        /* \"#utility.yul\":6281:6290   */\n      dup6\n        /* \"#utility.yul\":6277:6299   */\n      add\n        /* \"#utility.yul\":6256:6309   */\n      tag_100\n      jump\t// in\n    tag_207:\n        /* \"#utility.yul\":6246:6309   */\n      swap2\n      pop\n        /* \"#utility.yul\":6202:6319   */\n      pop\n        /* \"#utility.yul\":5997:6326   */\n      swap3\n      swap2\n      pop\n      pop\n      jump\t// out\n        /* \"#utility.yul\":6332:6431   */\n    tag_101:\n        /* \"#utility.yul\":6384:6390   */\n      0x00\n        /* \"#utility.yul\":6418:6423   */\n      dup2\n        /* \"#utility.yul\":6412:6424   */\n      mload\n        /* \"#utility.yul\":6402:6424   */\n      swap1\n      pop\n        /* \"#utility.yul\":6332:6431   */\n      swap2\n      swap1\n      pop\n      jump\t// out\n        /* \"#utility.yul\":6437:6606   */\n    tag_102:\n        /* \"#utility.yul\":6521:6532   */\n      0x00\n        /* \"#utility.yul\":6555:6561   */\n      dup3\n        /* \"#utility.yul\":6550:6553   */\n      dup3\n        /* \"#utility.yul\":6543:6562   */\n      mstore\n        /* \"#utility.yul\":6595:6599   */\n      0x20\n        /* \"#utility.yul\":6590:6593   */\n      dup3\n        /* \"#utility.yul\":6586:6600   */\n      add\n        /* \"#utility.yul\":6571:6600   */\n      swap1\n      pop\n        /* \"#utility.yul\":6437:6606   */\n      swap3\n      swap2\n      pop\n      pop\n      jump\t// out\n        /* \"#utility.yul\":6612:6751   */\n    tag_103:\n        /* \"#utility.yul\":6701:6707   */\n      dup3\n        /* \"#utility.yul\":6696:6699   */\n      dup2\n        /* \"#utility.yul\":6691:6694   */\n      dup4\n        /* \"#utility.yul\":6685:6708   */\n      mcopy\n        /* \"#utility.yul\":6742:6743   */\n      0x00\n        /* \"#utility.yul\":6733:6739   */\n      dup4\n        /* \"#utility.yul\":6728:6731   */\n      dup4\n        /* \"#utility.yul\":6724:6740   */\n      add\n        /* \"#utility.yul\":6717:6744   */\n      mstore\n        /* \"#utility.yul\":6612:6751   */\n      pop\n      pop\n      pop\n      jump\t// out\n        /* \"#utility.yul\":6757:7134   */\n    tag_104:\n        /* \"#utility.yul\":6845:6848   */\n      0x00\n        /* \"#utility.yul\":6873:6912   */\n      tag_212\n        /* \"#utility.yul\":6906:6911   */\n      dup3\n        /* \"#utility.yul\":6873:6912   */\n      tag_101\n      jump\t// in\n    tag_212:\n        /* \"#utility.yul\":6928:6999   */\n      tag_213\n        /* \"#utility.yul\":6992:6998   */\n      dup2\n        /* \"#utility.yul\":6987:6990   */\n      dup6\n        /* \"#utility.yul\":6928:6999   */\n      tag_102\n      jump\t// in\n    tag_213:\n        /* \"#utility.yul\":6921:6999   */\n      swap4\n      pop\n        /* \"#utility.yul\":7008:7073   */\n      tag_214\n        /* \"#utility.yul\":7066:7072   */\n      dup2\n        /* \"#utility.yul\":7061:7064   */\n      dup6\n        /* \"#utility.yul\":7054:7058   */\n      0x20\n        /* \"#utility.yul\":7047:7052   */\n      dup7\n        /* \"#utility.yul\":7043:7059   */\n      add\n        /* \"#utility.yul\":7008:7073   */\n      tag_103\n      jump\t// in\n    tag_214:\n        /* \"#utility.yul\":7098:7127   */\n      tag_215\n        /* \"#utility.yul\":7120:7126   */\n      dup2\n        /* \"#utility.yul\":7098:7127   */\n      tag_84\n      jump\t// in\n    tag_215:\n        /* \"#utility.yul\":7093:7096   */\n      dup5\n        /* \"#utility.yul\":7089:7128   */\n      add\n        /* \"#utility.yul\":7082:7128   */\n      swap2\n      pop\n        /* \"#utility.yul\":6849:7134   */\n      pop\n        /* \"#utility.yul\":6757:7134   */\n      swap3\n      swap2\n      pop\n      pop\n      jump\t// out\n        /* \"#utility.yul\":7140:7258   */\n    tag_105:\n        /* \"#utility.yul\":7227:7251   */\n      tag_217\n        /* \"#utility.yul\":7245:7250   */\n      dup2\n        /* \"#utility.yul\":7227:7251   */\n      tag_92\n      jump\t// in\n    tag_217:\n        /* \"#utility.yul\":7222:7225   */\n      dup3\n        /* \"#utility.yul\":7215:7252   */\n      mstore\n        /* \"#utility.yul\":7140:7258   */\n      pop\n      pop\n      jump\t// out\n        /* \"#utility.yul\":7264:8090   */\n    tag_26:\n        /* \"#utility.yul\":7501:7505   */\n      0x00\n        /* \"#utility.yul\":7539:7542   */\n      0x80\n        /* \"#utility.yul\":7528:7537   */\n      dup3\n        /* \"#utility.yul\":7524:7543   */\n      add\n        /* \"#utility.yul\":7516:7543   */\n      swap1\n      pop\n        /* \"#utility.yul\":7589:7598   */\n      dup2\n        /* \"#utility.yul\":7583:7587   */\n      dup2\n        /* \"#utility.yul\":7579:7599   */\n      sub\n        /* \"#utility.yul\":7575:7576   */\n      0x00\n        /* \"#utility.yul\":7564:7573   */\n      dup4\n        /* \"#utility.yul\":7560:7577   */\n      add\n        /* \"#utility.yul\":7553:7600   */\n      mstore\n        /* \"#utility.yul\":7617:7695   */\n      tag_219\n        /* \"#utility.yul\":7690:7694   */\n      dup2\n        /* \"#utility.yul\":7681:7687   */\n      dup8\n        /* \"#utility.yul\":7617:7695   */\n      tag_104\n      jump\t// in\n    tag_219:\n        /* \"#utility.yul\":7609:7695   */\n      swap1\n      pop\n        /* \"#utility.yul\":7742:7751   */\n      dup2\n        /* \"#utility.yul\":7736:7740   */\n      dup2\n        /* \"#utility.yul\":7732:7752   */\n      sub\n        /* \"#utility.yul\":7727:7729   */\n      0x20\n        /* \"#utility.yul\":7716:7725   */\n      dup4\n        /* \"#utility.yul\":7712:7730   */\n      add\n        /* \"#utility.yul\":7705:7753   */\n      mstore\n        /* \"#utility.yul\":7770:7848   */\n      tag_220\n        /* \"#utility.yul\":7843:7847   */\n      dup2\n        /* \"#utility.yul\":7834:7840   */\n      dup7\n        /* \"#utility.yul\":7770:7848   */\n      tag_104\n      jump\t// in\n    tag_220:\n        /* \"#utility.yul\":7762:7848   */\n      swap1\n      pop\n        /* \"#utility.yul\":7895:7904   */\n      dup2\n        /* \"#utility.yul\":7889:7893   */\n      dup2\n        /* \"#utility.yul\":7885:7905   */\n      sub\n        /* \"#utility.yul\":7880:7882   */\n      0x40\n        /* \"#utility.yul\":7869:7878   */\n      dup4\n        /* \"#utility.yul\":7865:7883   */\n      add\n        /* \"#utility.yul\":7858:7906   */\n      mstore\n        /* \"#utility.yul\":7923:8001   */\n      tag_221\n        /* \"#utility.yul\":7996:8000   */\n      dup2\n        /* \"#utility.yul\":7987:7993   */\n      dup6\n        /* \"#utility.yul\":7923:8001   */\n      tag_104\n      jump\t// in\n    tag_221:\n        /* \"#utility.yul\":7915:8001   */\n      swap1\n      pop\n        /* \"#utility.yul\":8011:8083   */\n      tag_222\n        /* \"#utility.yul\":8079:8081   */\n      0x60\n        /* \"#utility.yul\":8068:8077   */\n      dup4\n        /* \"#utility.yul\":8064:8082   */\n      add\n        /* \"#utility.yul\":8055:8061   */\n      dup5\n        /* \"#utility.yul\":8011:8083   */\n      tag_105\n      jump\t// in\n    tag_222:\n        /* \"#utility.yul\":7264:8090   */\n      swap6\n      swap5\n      pop\n      pop\n      pop\n      pop\n      pop\n      jump\t// out\n        /* \"#utility.yul\":8096:8214   */\n    tag_106:\n        /* \"#utility.yul\":8183:8207   */\n      tag_224\n        /* \"#utility.yul\":8201:8206   */\n      dup2\n        /* \"#utility.yul\":8183:8207   */\n      tag_98\n      jump\t// in\n    tag_224:\n        /* \"#utility.yul\":8178:8181   */\n      dup3\n        /* \"#utility.yul\":8171:8208   */\n      mstore\n        /* \"#utility.yul\":8096:8214   */\n      pop\n      pop\n      jump\t// out\n        /* \"#utility.yul\":8220:8442   */\n    tag_30:\n        /* \"#utility.yul\":8313:8317   */\n      0x00\n        /* \"#utility.yul\":8351:8353   */\n      0x20\n        /* \"#utility.yul\":8340:8349   */\n      dup3\n        /* \"#utility.yul\":8336:8354   */\n      add\n        /* \"#utility.yul\":8328:8354   */\n      swap1\n      pop\n        /* \"#utility.yul\":8364:8435   */\n      tag_226\n        /* \"#utility.yul\":8432:8433   */\n      0x00\n        /* \"#utility.yul\":8421:8430   */\n      dup4\n        /* \"#utility.yul\":8417:8434   */\n      add\n        /* \"#utility.yul\":8408:8414   */\n      dup5\n        /* \"#utility.yul\":8364:8435   */\n      tag_106\n      jump\t// in\n    tag_226:\n        /* \"#utility.yul\":8220:8442   */\n      swap3\n      swap2\n      pop\n      pop\n      jump\t// out\n        /* \"#utility.yul\":8448:8682   */\n    tag_107:\n        /* \"#utility.yul\":8588:8622   */\n      0x4f6e6c79207468652061646d696e6973747261746f722063616e20706572666f\n        /* \"#utility.yul\":8584:8585   */\n      0x00\n        /* \"#utility.yul\":8576:8582   */\n      dup3\n        /* \"#utility.yul\":8572:8586   */\n      add\n        /* \"#utility.yul\":8565:8623   */\n      mstore\n        /* \"#utility.yul\":8657:8674   */\n      0x726d207468697320616374696f6e2e0000000000000000000000000000000000\n        /* \"#utility.yul\":8652:8654   */\n      0x20\n        /* \"#utility.yul\":8644:8650   */\n      dup3\n        /* \"#utility.yul\":8640:8655   */\n      add\n        /* \"#utility.yul\":8633:8675   */\n      mstore\n        /* \"#utility.yul\":8448:8682   */\n      pop\n      jump\t// out\n        /* \"#utility.yul\":8688:9054   */\n    tag_108:\n        /* \"#utility.yul\":8830:8833   */\n      0x00\n        /* \"#utility.yul\":8851:8918   */\n      tag_229\n        /* \"#utility.yul\":8915:8917   */\n      0x2f\n        /* \"#utility.yul\":8910:8913   */\n      dup4\n        /* \"#utility.yul\":8851:8918   */\n      tag_102\n      jump\t// in\n    tag_229:\n        /* \"#utility.yul\":8844:8918   */\n      swap2\n      pop\n        /* \"#utility.yul\":8927:9020   */\n      tag_230\n        /* \"#utility.yul\":9016:9019   */\n      dup3\n        /* \"#utility.yul\":8927:9020   */\n      tag_107\n      jump\t// in\n    tag_230:\n        /* \"#utility.yul\":9045:9047   */\n      0x40\n        /* \"#utility.yul\":9040:9043   */\n      dup3\n        /* \"#utility.yul\":9036:9048   */\n      add\n        /* \"#utility.yul\":9029:9048   */\n      swap1\n      pop\n        /* \"#utility.yul\":8688:9054   */\n      swap2\n      swap1\n      pop\n      jump\t// out\n        /* \"#utility.yul\":9060:9479   */\n    tag_34:\n        /* \"#utility.yul\":9226:9230   */\n      0x00\n        /* \"#utility.yul\":9264:9266   */\n      0x20\n        /* \"#utility.yul\":9253:9262   */\n      dup3\n        /* \"#utility.yul\":9249:9267   */\n      add\n        /* \"#utility.yul\":9241:9267   */\n      swap1\n      pop\n        /* \"#utility.yul\":9313:9322   */\n      dup2\n        /* \"#utility.yul\":9307:9311   */\n      dup2\n        /* \"#utility.yul\":9303:9323   */\n      sub\n        /* \"#utility.yul\":9299:9300   */\n      0x00\n        /* \"#utility.yul\":9288:9297   */\n      dup4\n        /* \"#utility.yul\":9284:9301   */\n      add\n        /* \"#utility.yul\":9277:9324   */\n      mstore\n        /* \"#utility.yul\":9341:9472   */\n      tag_232\n        /* \"#utility.yul\":9467:9471   */\n      dup2\n        /* \"#utility.yul\":9341:9472   */\n      tag_108\n      jump\t// in\n    tag_232:\n        /* \"#utility.yul\":9333:9472   */\n      swap1\n      pop\n        /* \"#utility.yul\":9060:9479   */\n      swap2\n      swap1\n      pop\n      jump\t// out\n        /* \"#utility.yul\":9485:9633   */\n    tag_109:\n        /* \"#utility.yul\":9587:9598   */\n      0x00\n        /* \"#utility.yul\":9624:9627   */\n      dup2\n        /* \"#utility.yul\":9609:9627   */\n      swap1\n      pop\n        /* \"#utility.yul\":9485:9633   */\n      swap3\n      swap2\n      pop\n      pop\n      jump\t// out\n        /* \"#utility.yul\":9639:10029   */\n    tag_110:\n        /* \"#utility.yul\":9745:9748   */\n      0x00\n        /* \"#utility.yul\":9773:9812   */\n      tag_235\n        /* \"#utility.yul\":9806:9811   */\n      dup3\n        /* \"#utility.yul\":9773:9812   */\n      tag_101\n      jump\t// in\n    tag_235:\n        /* \"#utility.yul\":9828:9917   */\n      tag_236\n        /* \"#utility.yul\":9910:9916   */\n      dup2\n        /* \"#utility.yul\":9905:9908   */\n      dup6\n        /* \"#utility.yul\":9828:9917   */\n      tag_109\n      jump\t// in\n    tag_236:\n        /* \"#utility.yul\":9821:9917   */\n      swap4\n      pop\n        /* \"#utility.yul\":9926:9991   */\n      tag_237\n        /* \"#utility.yul\":9984:9990   */\n      dup2\n        /* \"#utility.yul\":9979:9982   */\n      dup6\n        /* \"#utility.yul\":9972:9976   */\n      0x20\n        /* \"#utility.yul\":9965:9970   */\n      dup7\n        /* \"#utility.yul\":9961:9977   */\n      add\n        /* \"#utility.yul\":9926:9991   */\n      tag_103\n      jump\t// in\n    tag_237:\n        /* \"#utility.yul\":10016:10022   */\n      dup1\n        /* \"#utility.yul\":10011:10014   */\n      dup5\n        /* \"#utility.yul\":10007:10023   */\n      add\n        /* \"#utility.yul\":10000:10023   */\n      swap2\n      pop\n        /* \"#utility.yul\":9749:10029   */\n      pop\n        /* \"#utility.yul\":9639:10029   */\n      swap3\n      swap2\n      pop\n      pop\n      jump\t// out\n        /* \"#utility.yul\":10035:10310   */\n    tag_37:\n        /* \"#utility.yul\":10167:10170   */\n      0x00\n        /* \"#utility.yul\":10189:10284   */\n      tag_239\n        /* \"#utility.yul\":10280:10283   */\n      dup3\n        /* \"#utility.yul\":10271:10277   */\n      dup5\n        /* \"#utility.yul\":10189:10284   */\n      tag_110\n      jump\t// in\n    tag_239:\n        /* \"#utility.yul\":10182:10284   */\n      swap2\n      pop\n        /* \"#utility.yul\":10301:10304   */\n      dup2\n        /* \"#utility.yul\":10294:10304   */\n      swap1\n      pop\n        /* \"#utility.yul\":10035:10310   */\n      swap3\n      swap2\n      pop\n      pop\n      jump\t// out\n        /* \"#utility.yul\":10316:10550   */\n    tag_111:\n        /* \"#utility.yul\":10456:10490   */\n      0x436572746966696361746520616c72656164792065786973747320666f722074\n        /* \"#utility.yul\":10452:10453   */\n      0x00\n        /* \"#utility.yul\":10444:10450   */\n      dup3\n        /* \"#utility.yul\":10440:10454   */\n      add\n        /* \"#utility.yul\":10433:10491   */\n      mstore\n        /* \"#utility.yul\":10525:10542   */\n      0x6869732073747564656e742049442e0000000000000000000000000000000000\n        /* \"#utility.yul\":10520:10522   */\n      0x20\n        /* \"#utility.yul\":10512:10518   */\n      dup3\n        /* \"#utility.yul\":10508:10523   */\n      add\n        /* \"#utility.yul\":10501:10543   */\n      mstore\n        /* \"#utility.yul\":10316:10550   */\n      pop\n      jump\t// out\n        /* \"#utility.yul\":10556:10922   */\n    tag_112:\n        /* \"#utility.yul\":10698:10701   */\n      0x00\n        /* \"#utility.yul\":10719:10786   */\n      tag_242\n        /* \"#utility.yul\":10783:10785   */\n      0x2f\n        /* \"#utility.yul\":10778:10781   */\n      dup4\n        /* \"#utility.yul\":10719:10786   */\n      tag_102\n      jump\t// in\n    tag_242:\n        /* \"#utility.yul\":10712:10786   */\n      swap2\n      pop\n        /* \"#utility.yul\":10795:10888   */\n      tag_243\n        /* \"#utility.yul\":10884:10887   */\n      dup3\n        /* \"#utility.yul\":10795:10888   */\n      tag_111\n      jump\t// in\n    tag_243:\n        /* \"#utility.yul\":10913:10915   */\n      0x40\n        /* \"#utility.yul\":10908:10911   */\n      dup3\n        /* \"#utility.yul\":10904:10916   */\n      add\n        /* \"#utility.yul\":10897:10916   */\n      swap1\n      pop\n        /* \"#utility.yul\":10556:10922   */\n      swap2\n      swap1\n      pop\n      jump\t// out\n        /* \"#utility.yul\":10928:11347   */\n    tag_40:\n        /* \"#utility.yul\":11094:11098   */\n      0x00\n        /* \"#utility.yul\":11132:11134   */\n      0x20\n        /* \"#utility.yul\":11121:11130   */\n      dup3\n        /* \"#utility.yul\":11117:11135   */\n      add\n        /* \"#utility.yul\":11109:11135   */\n      swap1\n      pop\n        /* \"#utility.yul\":11181:11190   */\n      dup2\n        /* \"#utility.yul\":11175:11179   */\n      dup2\n        /* \"#utility.yul\":11171:11191   */\n      sub\n        /* \"#utility.yul\":11167:11168   */\n      0x00\n        /* \"#utility.yul\":11156:11165   */\n      dup4\n        /* \"#utility.yul\":11152:11169   */\n      add\n        /* \"#utility.yul\":11145:11192   */\n      mstore\n        /* \"#utility.yul\":11209:11340   */\n      tag_245\n        /* \"#utility.yul\":11335:11339   */\n      dup2\n        /* \"#utility.yul\":11209:11340   */\n      tag_112\n      jump\t// in\n    tag_245:\n        /* \"#utility.yul\":11201:11340   */\n      swap1\n      pop\n        /* \"#utility.yul\":10928:11347   */\n      swap2\n      swap1\n      pop\n      jump\t// out\n        /* \"#utility.yul\":11353:11533   */\n    tag_113:\n        /* \"#utility.yul\":11401:11478   */\n      0x4e487b7100000000000000000000000000000000000000000000000000000000\n        /* \"#utility.yul\":11398:11399   */\n      0x00\n        /* \"#utility.yul\":11391:11479   */\n      mstore\n        /* \"#utility.yul\":11498:11502   */\n      0x22\n        /* \"#utility.yul\":11495:11496   */\n      0x04\n        /* \"#utility.yul\":11488:11503   */\n      mstore\n        /* \"#utility.yul\":11522:11526   */\n      0x24\n        /* \"#utility.yul\":11519:11520   */\n      0x00\n        /* \"#utility.yul\":11512:11527   */\n      revert\n        /* \"#utility.yul\":11539:11859   */\n    tag_64:\n        /* \"#utility.yul\":11583:11589   */\n      0x00\n        /* \"#utility.yul\":11620:11621   */\n      0x02\n        /* \"#utility.yul\":11614:11618   */\n      dup3\n        /* \"#utility.yul\":11610:11622   */\n      div\n        /* \"#utility.yul\":11600:11622   */\n      swap1\n      pop\n        /* \"#utility.yul\":11667:11668   */\n      0x01\n        /* \"#utility.yul\":11661:11665   */\n      dup3\n        /* \"#utility.yul\":11657:11669   */\n      and\n        /* \"#utility.yul\":11688:11706   */\n      dup1\n        /* \"#utility.yul\":11678:11759   */\n      tag_248\n      jumpi\n        /* \"#utility.yul\":11744:11748   */\n      0x7f\n        /* \"#utility.yul\":11736:11742   */\n      dup3\n        /* \"#utility.yul\":11732:11749   */\n      and\n        /* \"#utility.yul\":11722:11749   */\n      swap2\n      pop\n        /* \"#utility.yul\":11678:11759   */\n    tag_248:\n        /* \"#utility.yul\":11806:11808   */\n      0x20\n        /* \"#utility.yul\":11798:11804   */\n      dup3\n        /* \"#utility.yul\":11795:11809   */\n      lt\n        /* \"#utility.yul\":11775:11793   */\n      dup2\n        /* \"#utility.yul\":11772:11810   */\n      sub\n        /* \"#utility.yul\":11769:11853   */\n      tag_249\n      jumpi\n        /* \"#utility.yul\":11825:11843   */\n      tag_250\n      tag_113\n      jump\t// in\n    tag_250:\n        /* \"#utility.yul\":11769:11853   */\n    tag_249:\n        /* \"#utility.yul\":11590:11859   */\n      pop\n        /* \"#utility.yul\":11539:11859   */\n      swap2\n      swap1\n      pop\n      jump\t// out\n        /* \"#utility.yul\":11865:12006   */\n    tag_114:\n        /* \"#utility.yul\":11914:11918   */\n      0x00\n        /* \"#utility.yul\":11937:11940   */\n      dup2\n        /* \"#utility.yul\":11929:11940   */\n      swap1\n      pop\n        /* \"#utility.yul\":11960:11963   */\n      dup2\n        /* \"#utility.yul\":11957:11958   */\n      0x00\n        /* \"#utility.yul\":11950:11964   */\n      mstore\n        /* \"#utility.yul\":11994:11998   */\n      0x20\n        /* \"#utility.yul\":11991:11992   */\n      0x00\n        /* \"#utility.yul\":11981:11999   */\n      keccak256\n        /* \"#utility.yul\":11973:11999   */\n      swap1\n      pop\n        /* \"#utility.yul\":11865:12006   */\n      swap2\n      swap1\n      pop\n      jump\t// out\n        /* \"#utility.yul\":12012:12105   */\n    tag_115:\n        /* \"#utility.yul\":12049:12055   */\n      0x00\n        /* \"#utility.yul\":12096:12098   */\n      0x20\n        /* \"#utility.yul\":12091:12093   */\n      0x1f\n        /* \"#utility.yul\":12084:12089   */\n      dup4\n        /* \"#utility.yul\":12080:12094   */\n      add\n        /* \"#utility.yul\":12076:12099   */\n      div\n        /* \"#utility.yul\":12066:12099   */\n      swap1\n      pop\n        /* \"#utility.yul\":12012:12105   */\n      swap2\n      swap1\n      pop\n      jump\t// out\n        /* \"#utility.yul\":12111:12218   */\n    tag_116:\n        /* \"#utility.yul\":12155:12163   */\n      0x00\n        /* \"#utility.yul\":12205:12210   */\n      dup3\n        /* \"#utility.yul\":12199:12203   */\n      dup3\n        /* \"#utility.yul\":12195:12211   */\n      shl\n        /* \"#utility.yul\":12174:12211   */\n      swap1\n      pop\n        /* \"#utility.yul\":12111:12218   */\n      swap3\n      swap2\n      pop\n      pop\n      jump\t// out\n        /* \"#utility.yul\":12224:12617   */\n    tag_117:\n        /* \"#utility.yul\":12293:12299   */\n      0x00\n        /* \"#utility.yul\":12343:12344   */\n      0x08\n        /* \"#utility.yul\":12331:12341   */\n      dup4\n        /* \"#utility.yul\":12327:12345   */\n      mul\n        /* \"#utility.yul\":12366:12463   */\n      tag_255\n        /* \"#utility.yul\":12396:12462   */\n      0xffffffffffffffffffffffffffffffffffffffffffffffffffffffffffffffff\n        /* \"#utility.yul\":12385:12394   */\n      dup3\n        /* \"#utility.yul\":12366:12463   */\n      tag_116\n      jump\t// in\n    tag_255:\n        /* \"#utility.yul\":12484:12523   */\n      tag_256\n        /* \"#utility.yul\":12514:12522   */\n      dup7\n        /* \"#utility.yul\":12503:12512   */\n      dup4\n        /* \"#utility.yul\":12484:12523   */\n      tag_116\n      jump\t// in\n    tag_256:\n        /* \"#utility.yul\":12472:12523   */\n      swap6\n      pop\n        /* \"#utility.yul\":12556:12560   */\n      dup1\n        /* \"#utility.yul\":12552:12561   */\n      not\n        /* \"#utility.yul\":12545:12550   */\n      dup5\n        /* \"#utility.yul\":12541:12562   */\n      and\n        /* \"#utility.yul\":12532:12562   */\n      swap4\n      pop\n        /* \"#utility.yul\":12605:12609   */\n      dup1\n        /* \"#utility.yul\":12595:12603   */\n      dup7\n        /* \"#utility.yul\":12591:12610   */\n      and\n        /* \"#utility.yul\":12584:12589   */\n      dup5\n        /* \"#utility.yul\":12581:12611   */\n      or\n        /* \"#utility.yul\":12571:12611   */\n      swap3\n      pop\n        /* \"#utility.yul\":12300:12617   */\n      pop\n      pop\n        /* \"#utility.yul\":12224:12617   */\n      swap4\n      swap3\n      pop\n      pop\n      pop\n      jump\t// out\n        /* \"#utility.yul\":12623:12683   */\n    tag_118:\n        /* \"#utility.yul\":12651:12654   */\n      0x00\n        /* \"#utility.yul\":12672:12677   */\n      dup2\n        /* \"#utility.yul\":12665:12677   */\n      swap1\n      pop\n        /* \"#utility.yul\":12623:12683   */\n      swap2\n      swap1\n      pop\n      jump\t// out\n        /* \"#utility.yul\":12689:12831   */\n    tag_119:\n        /* \"#utility.yul\":12739:12748   */\n      0x00\n        /* \"#utility.yul\":12772:12825   */\n      tag_259\n        /* \"#utility.yul\":12790:12824   */\n      tag_260\n        /* \"#utility.yul\":12799:12823   */\n      tag_261\n        /* \"#utility.yul\":12817:12822   */\n      dup5\n        /* \"#utility.yul\":12799:12823   */\n      tag_92\n      jump\t// in\n    tag_261:\n        /* \"#utility.yul\":12790:12824   */\n      tag_118\n      jump\t// in\n    tag_260:\n        /* \"#utility.yul\":12772:12825   */\n      tag_92\n      jump\t// in\n    tag_259:\n        /* \"#utility.yul\":12759:12825   */\n      swap1\n      pop\n        /* \"#utility.yul\":12689:12831   */\n      swap2\n      swap1\n      pop\n      jump\t// out\n        /* \"#utility.yul\":12837:12912   */\n    tag_120:\n        /* \"#utility.yul\":12880:12883   */\n      0x00\n        /* \"#utility.yul\":12901:12906   */\n      dup2\n        /* \"#utility.yul\":12894:12906   */\n      swap1\n      pop\n        /* \"#utility.yul\":12837:12912   */\n      swap2\n      swap1\n      pop\n      jump\t// out\n        /* \"#utility.yul\":12918:13187   */\n    tag_121:\n        /* \"#utility.yul\":13028:13067   */\n      tag_264\n        /* \"#utility.yul\":13059:13066   */\n      dup4\n        /* \"#utility.yul\":13028:13067   */\n      tag_119\n      jump\t// in\n    tag_264:\n        /* \"#utility.yul\":13089:13180   */\n      tag_265\n        /* \"#utility.yul\":13138:13179   */\n      tag_266\n        /* \"#utility.yul\":13162:13178   */\n      dup3\n        /* \"#utility.yul\":13138:13179   */\n      tag_120\n      jump\t// in\n    tag_266:\n        /* \"#utility.yul\":13130:13136   */\n      dup5\n        /* \"#utility.yul\":13123:13127   */\n      dup5\n        /* \"#utility.yul\":13117:13128   */\n      sload\n        /* \"#utility.yul\":13089:13180   */\n      tag_117\n      jump\t// in\n    tag_265:\n        /* \"#utility.yul\":13083:13087   */\n      dup3\n        /* \"#utility.yul\":13076:13181   */\n      sstore\n        /* \"#utility.yul\":12994:13187   */\n      pop\n        /* \"#utility.yul\":12918:13187   */\n      pop\n      pop\n      pop\n      jump\t// out\n        /* \"#utility.yul\":13193:13266   */\n    tag_122:\n        /* \"#utility.yul\":13238:13241   */\n      0x00\n        /* \"#utility.yul\":13193:13266   */\n      swap1\n      jump\t// out\n        /* \"#utility.yul\":13272:13461   */\n    tag_123:\n        /* \"#utility.yul\":13349:13381   */\n      tag_269\n      tag_122\n      jump\t// in\n    tag_269:\n        /* \"#utility.yul\":13390:13455   */\n      tag_270\n        /* \"#utility.yul\":13448:13454   */\n      dup2\n        /* \"#utility.yul\":13440:13446   */\n      dup5\n        /* \"#utility.yul\":13434:13438   */\n      dup5\n        /* \"#utility.yul\":13390:13455   */\n      tag_121\n      jump\t// in\n    tag_270:\n        /* \"#utility.yul\":13325:13461   */\n      pop\n        /* \"#utility.yul\":13272:13461   */\n      pop\n      pop\n      jump\t// out\n        /* \"#utility.yul\":13467:13653   */\n    tag_124:\n        /* \"#utility.yul\":13527:13647   */\n    tag_272:\n        /* \"#utility.yul\":13544:13547   */\n      dup2\n        /* \"#utility.yul\":13537:13542   */\n      dup2\n        /* \"#utility.yul\":13534:13548   */\n      lt\n        /* \"#utility.yul\":13527:13647   */\n      iszero\n      tag_274\n      jumpi\n        /* \"#utility.yul\":13598:13637   */\n      tag_275\n        /* \"#utility.yul\":13635:13636   */\n      0x00\n        /* \"#utility.yul\":13628:13633   */\n      dup3\n        /* \"#utility.yul\":13598:13637   */\n      tag_123\n      jump\t// in\n    tag_275:\n        /* \"#utility.yul\":13571:13572   */\n      0x01\n        /* \"#utility.yul\":13564:13569   */\n      dup2\n        /* \"#utility.yul\":13560:13573   */\n      add\n        /* \"#utility.yul\":13551:13573   */\n      swap1\n      pop\n        /* \"#utility.yul\":13527:13647   */\n      jump(tag_272)\n    tag_274:\n        /* \"#utility.yul\":13467:13653   */\n      pop\n      pop\n      jump\t// out\n        /* \"#utility.yul\":13659:14202   */\n    tag_125:\n        /* \"#utility.yul\":13760:13762   */\n      0x1f\n        /* \"#utility.yul\":13755:13758   */\n      dup3\n        /* \"#utility.yul\":13752:13763   */\n      gt\n        /* \"#utility.yul\":13749:14195   */\n      iszero\n      tag_277\n      jumpi\n        /* \"#utility.yul\":13794:13832   */\n      tag_278\n        /* \"#utility.yul\":13826:13831   */\n      dup2\n        /* \"#utility.yul\":13794:13832   */\n      tag_114\n      jump\t// in\n    tag_278:\n        /* \"#utility.yul\":13878:13907   */\n      tag_279\n        /* \"#utility.yul\":13896:13906   */\n      dup5\n        /* \"#utility.yul\":13878:13907   */\n      tag_115\n      jump\t// in\n    tag_279:\n        /* \"#utility.yul\":13868:13876   */\n      dup2\n        /* \"#utility.yul\":13864:13908   */\n      add\n        /* \"#utility.yul\":14061:14063   */\n      0x20\n        /* \"#utility.yul\":14049:14059   */\n      dup6\n        /* \"#utility.yul\":14046:14064   */\n      lt\n        /* \"#utility.yul\":14043:14092   */\n      iszero\n      tag_280\n      jumpi\n        /* \"#utility.yul\":14082:14090   */\n      dup2\n        /* \"#utility.yul\":14067:14090   */\n      swap1\n      pop\n        /* \"#utility.yul\":14043:14092   */\n    tag_280:\n        /* \"#utility.yul\":14105:14185   */\n      tag_281\n        /* \"#utility.yul\":14161:14183   */\n      tag_282\n        /* \"#utility.yul\":14179:14182   */\n      dup6\n        /* \"#utility.yul\":14161:14183   */\n      tag_115\n      jump\t// in\n    tag_282:\n        /* \"#utility.yul\":14151:14159   */\n      dup4\n        /* \"#utility.yul\":14147:14184   */\n      add\n        /* \"#utility.yul\":14134:14145   */\n      dup3\n        /* \"#utility.yul\":14105:14185   */\n      tag_124\n      jump\t// in\n    tag_281:\n        /* \"#utility.yul\":13764:14195   */\n      pop\n      pop\n        /* \"#utility.yul\":13749:14195   */\n    tag_277:\n        /* \"#utility.yul\":13659:14202   */\n      pop\n      pop\n      pop\n      jump\t// out\n        /* \"#utility.yul\":14208:14325   */\n    tag_126:\n        /* \"#utility.yul\":14262:14270   */\n      0x00\n        /* \"#utility.yul\":14312:14317   */\n      dup3\n        /* \"#utility.yul\":14306:14310   */\n      dup3\n        /* \"#utility.yul\":14302:14318   */\n      shr\n        /* \"#utility.yul\":14281:14318   */\n      swap1\n      pop\n        /* \"#utility.yul\":14208:14325   */\n      swap3\n      swap2\n      pop\n      pop\n      jump\t// out\n        /* \"#utility.yul\":14331:14500   */\n    tag_127:\n        /* \"#utility.yul\":14375:14381   */\n      0x00\n        /* \"#utility.yul\":14408:14459   */\n      tag_285\n        /* \"#utility.yul\":14456:14457   */\n      0x00\n        /* \"#utility.yul\":14452:14458   */\n      not\n        /* \"#utility.yul\":14444:14449   */\n      dup5\n        /* \"#utility.yul\":14441:14442   */\n      0x08\n        /* \"#utility.yul\":14437:14450   */\n      mul\n        /* \"#utility.yul\":14408:14459   */\n      tag_126\n      jump\t// in\n    tag_285:\n        /* \"#utility.yul\":14404:14460   */\n      not\n        /* \"#utility.yul\":14489:14493   */\n      dup1\n        /* \"#utility.yul\":14483:14487   */\n      dup4\n        /* \"#utility.yul\":14479:14494   */\n      and\n        /* \"#utility.yul\":14469:14494   */\n      swap2\n      pop\n        /* \"#utility.yul\":14382:14500   */\n      pop\n        /* \"#utility.yul\":14331:14500   */\n      swap3\n      swap2\n      pop\n      pop\n      jump\t// out\n        /* \"#utility.yul\":14505:14800   */\n    tag_128:\n        /* \"#utility.yul\":14581:14585   */\n      0x00\n        /* \"#utility.yul\":14727:14756   */\n      tag_287\n        /* \"#utility.yul\":14752:14755   */\n      dup4\n        /* \"#utility.yul\":14746:14750   */\n      dup4\n        /* \"#utility.yul\":14727:14756   */\n      tag_127\n      jump\t// in\n    tag_287:\n        /* \"#utility.yul\":14719:14756   */\n      swap2\n      pop\n        /* \"#utility.yul\":14789:14792   */\n      dup3\n        /* \"#utility.yul\":14786:14787   */\n      0x02\n        /* \"#utility.yul\":14782:14793   */\n      mul\n        /* \"#utility.yul\":14776:14780   */\n      dup3\n        /* \"#utility.yul\":14773:14794   */\n      or\n        /* \"#utility.yul\":14765:14794   */\n      swap1\n      pop\n        /* \"#utility.yul\":14505:14800   */\n      swap3\n      swap2\n      pop\n      pop\n      jump\t// out\n        /* \"#utility.yul\":14805:16200   */\n    tag_43:\n        /* \"#utility.yul\":14922:14959   */\n      tag_289\n        /* \"#utility.yul\":14955:14958   */\n      dup3\n        /* \"#utility.yul\":14922:14959   */\n      tag_101\n      jump\t// in\n    tag_289:\n        /* \"#utility.yul\":15024:15042   */\n      0xffffffffffffffff\n        /* \"#utility.yul\":15016:15022   */\n      dup2\n        /* \"#utility.yul\":15013:15043   */\n      gt\n        /* \"#utility.yul\":15010:15066   */\n      iszero\n      tag_290\n      jumpi\n        /* \"#utility.yul\":15046:15064   */\n      tag_291\n      tag_85\n      jump\t// in\n    tag_291:\n        /* \"#utility.yul\":15010:15066   */\n    tag_290:\n        /* \"#utility.yul\":15090:15128   */\n      tag_292\n        /* \"#utility.yul\":15122:15126   */\n      dup3\n        /* \"#utility.yul\":15116:15127   */\n      sload\n        /* \"#utility.yul\":15090:15128   */\n      tag_64\n      jump\t// in\n    tag_292:\n        /* \"#utility.yul\":15175:15242   */\n      tag_293\n        /* \"#utility.yul\":15235:15241   */\n      dup3\n        /* \"#utility.yul\":15227:15233   */\n      dup3\n        /* \"#utility.yul\":15221:15225   */\n      dup6\n        /* \"#utility.yul\":15175:15242   */\n      tag_125\n      jump\t// in\n    tag_293:\n        /* \"#utility.yul\":15269:15270   */\n      0x00\n        /* \"#utility.yul\":15293:15297   */\n      0x20\n        /* \"#utility.yul\":15280:15297   */\n      swap1\n      pop\n        /* \"#utility.yul\":15325:15327   */\n      0x1f\n        /* \"#utility.yul\":15317:15323   */\n      dup4\n        /* \"#utility.yul\":15314:15328   */\n      gt\n        /* \"#utility.yul\":15342:15343   */\n      0x01\n        /* \"#utility.yul\":15337:15955   */\n      dup2\n      eq\n      tag_295\n      jumpi\n        /* \"#utility.yul\":15999:16000   */\n      0x00\n        /* \"#utility.yul\":16016:16022   */\n      dup5\n        /* \"#utility.yul\":16013:16090   */\n      iszero\n      tag_296\n      jumpi\n        /* \"#utility.yul\":16065:16074   */\n      dup3\n        /* \"#utility.yul\":16060:16063   */\n      dup8\n        /* \"#utility.yul\":16056:16075   */\n      add\n        /* \"#utility.yul\":16050:16076   */\n      mload\n        /* \"#utility.yul\":16041:16076   */\n      swap1\n      pop\n        /* \"#utility.yul\":16013:16090   */\n    tag_296:\n        /* \"#utility.yul\":16116:16183   */\n      tag_297\n        /* \"#utility.yul\":16176:16182   */\n      dup6\n        /* \"#utility.yul\":16169:16174   */\n      dup3\n        /* \"#utility.yul\":16116:16183   */\n      tag_128\n      jump\t// in\n    tag_297:\n        /* \"#utility.yul\":16110:16114   */\n      dup7\n        /* \"#utility.yul\":16103:16184   */\n      sstore\n        /* \"#utility.yul\":15972:16194   */\n      pop\n        /* \"#utility.yul\":15307:16194   */\n      jump(tag_294)\n        /* \"#utility.yul\":15337:15955   */\n    tag_295:\n        /* \"#utility.yul\":15389:15393   */\n      0x1f\n        /* \"#utility.yul\":15385:15394   */\n      not\n        /* \"#utility.yul\":15377:15383   */\n      dup5\n        /* \"#utility.yul\":15373:15395   */\n      and\n        /* \"#utility.yul\":15423:15460   */\n      tag_298\n        /* \"#utility.yul\":15455:15459   */\n      dup7\n        /* \"#utility.yul\":15423:15460   */\n      tag_114\n      jump\t// in\n    tag_298:\n        /* \"#utility.yul\":15482:15483   */\n      0x00\n        /* \"#utility.yul\":15496:15704   */\n    tag_299:\n        /* \"#utility.yul\":15510:15517   */\n      dup3\n        /* \"#utility.yul\":15507:15508   */\n      dup2\n        /* \"#utility.yul\":15504:15518   */\n      lt\n        /* \"#utility.yul\":15496:15704   */\n      iszero\n      tag_301\n      jumpi\n        /* \"#utility.yul\":15589:15598   */\n      dup5\n        /* \"#utility.yul\":15584:15587   */\n      dup10\n        /* \"#utility.yul\":15580:15599   */\n      add\n        /* \"#utility.yul\":15574:15600   */\n      mload\n        /* \"#utility.yul\":15566:15572   */\n      dup3\n        /* \"#utility.yul\":15559:15601   */\n      sstore\n        /* \"#utility.yul\":15640:15641   */\n      0x01\n        /* \"#utility.yul\":15632:15638   */\n      dup3\n        /* \"#utility.yul\":15628:15642   */\n      add\n        /* \"#utility.yul\":15618:15642   */\n      swap2\n      pop\n        /* \"#utility.yul\":15687:15689   */\n      0x20\n        /* \"#utility.yul\":15676:15685   */\n      dup6\n        /* \"#utility.yul\":15672:15690   */\n      add\n        /* \"#utility.yul\":15659:15690   */\n      swap5\n      pop\n        /* \"#utility.yul\":15533:15537   */\n      0x20\n        /* \"#utility.yul\":15530:15531   */\n      dup2\n        /* \"#utility.yul\":15526:15538   */\n      add\n        /* \"#utility.yul\":15521:15538   */\n      swap1\n      pop\n        /* \"#utility.yul\":15496:15704   */\n      jump(tag_299)\n    tag_301:\n        /* \"#utility.yul\":15732:15738   */\n      dup7\n        /* \"#utility.yul\":15723:15730   */\n      dup4\n        /* \"#utility.yul\":15720:15739   */\n      lt\n        /* \"#utility.yul\":15717:15896   */\n      iszero\n      tag_302\n      jumpi\n        /* \"#utility.yul\":15790:15799   */\n      dup5\n        /* \"#utility.yul\":15785:15788   */\n      dup10\n        /* \"#utility.yul\":15781:15800   */\n      add\n        /* \"#utility.yul\":15775:15801   */\n      mload\n        /* \"#utility.yul\":15833:15881   */\n      tag_303\n        /* \"#utility.yul\":15875:15879   */\n      0x1f\n        /* \"#utility.yul\":15867:15873   */\n      dup10\n        /* \"#utility.yul\":15863:15880   */\n      and\n        /* \"#utility.yul\":15852:15861   */\n      dup3\n        /* \"#utility.yul\":15833:15881   */\n      tag_127\n      jump\t// in\n    tag_303:\n        /* \"#utility.yul\":15825:15831   */\n      dup4\n        /* \"#utility.yul\":15818:15882   */\n      sstore\n        /* \"#utility.yul\":15740:15896   */\n      pop\n        /* \"#utility.yul\":15717:15896   */\n    tag_302:\n        /* \"#utility.yul\":15942:15943   */\n      0x01\n        /* \"#utility.yul\":15938:15939   */\n      0x02\n        /* \"#utility.yul\":15930:15936   */\n      dup9\n        /* \"#utility.yul\":15926:15940   */\n      mul\n        /* \"#utility.yul\":15922:15944   */\n      add\n        /* \"#utility.yul\":15916:15920   */\n      dup9\n        /* \"#utility.yul\":15909:15945   */\n      sstore\n        /* \"#utility.yul\":15344:15955   */\n      pop\n      pop\n      pop\n        /* \"#utility.yul\":15307:16194   */\n    tag_294:\n      pop\n        /* \"#utility.yul\":14897:16200   */\n      pop\n      pop\n      pop\n        /* \"#utility.yul\":14805:16200   */\n      pop\n      pop\n      jump\t// out\n        /* \"#utility.yul\":16206:16378   */\n    tag_129:\n        /* \"#utility.yul\":16346:16370   */\n      0x496e76616c69642061646d696e20616464726573732e00000000000000000000\n        /* \"#utility.yul\":16342:16343   */\n      0x00\n        /* \"#utility.yul\":16334:16340   */\n      dup3\n        /* \"#utility.yul\":16330:16344   */\n      add\n        /* \"#utility.yul\":16323:16371   */\n      mstore\n        /* \"#utility.yul\":16206:16378   */\n      pop\n      jump\t// out\n        /* \"#utility.yul\":16384:16750   */\n    tag_130:\n        /* \"#utility.yul\":16526:16529   */\n      0x00\n        /* \"#utility.yul\":16547:16614   */\n      tag_306\n        /* \"#utility.yul\":16611:16613   */\n      0x16\n        /* \"#utility.yul\":16606:16609   */\n      dup4\n        /* \"#utility.yul\":16547:16614   */\n      tag_102\n      jump\t// in\n    tag_306:\n        /* \"#utility.yul\":16540:16614   */\n      swap2\n      pop\n        /* \"#utility.yul\":16623:16716   */\n      tag_307\n        /* \"#utility.yul\":16712:16715   */\n      dup3\n        /* \"#utility.yul\":16623:16716   */\n      tag_129\n      jump\t// in\n    tag_307:\n        /* \"#utility.yul\":16741:16743   */\n      0x20\n        /* \"#utility.yul\":16736:16739   */\n      dup3\n        /* \"#utility.yul\":16732:16744   */\n      add\n        /* \"#utility.yul\":16725:16744   */\n      swap1\n      pop\n        /* \"#utility.yul\":16384:16750   */\n      swap2\n      swap1\n      pop\n      jump\t// out\n        /* \"#utility.yul\":16756:17175   */\n    tag_56:\n        /* \"#utility.yul\":16922:16926   */\n      0x00\n        /* \"#utility.yul\":16960:16962   */\n      0x20\n        /* \"#utility.yul\":16949:16958   */\n      dup3\n        /* \"#utility.yul\":16945:16963   */\n      add\n        /* \"#utility.yul\":16937:16963   */\n      swap1\n      pop\n        /* \"#utility.yul\":17009:17018   */\n      dup2\n        /* \"#utility.yul\":17003:17007   */\n      dup2\n        /* \"#utility.yul\":16999:17019   */\n      sub\n        /* \"#utility.yul\":16995:16996   */\n      0x00\n        /* \"#utility.yul\":16984:16993   */\n      dup4\n        /* \"#utility.yul\":16980:16997   */\n      add\n        /* \"#utility.yul\":16973:17020   */\n      mstore\n        /* \"#utility.yul\":17037:17168   */\n      tag_309\n        /* \"#utility.yul\":17163:17167   */\n      dup2\n        /* \"#utility.yul\":17037:17168   */\n      tag_130\n      jump\t// in\n    tag_309:\n        /* \"#utility.yul\":17029:17168   */\n      swap1\n      pop\n        /* \"#utility.yul\":16756:17175   */\n      swap2\n      swap1\n      pop\n      jump\t// out\n        /* \"#utility.yul\":17181:17415   */\n    tag_131:\n        /* \"#utility.yul\":17321:17355   */\n      0x436572746966696361746520646f6573206e6f7420657869737420666f722074\n        /* \"#utility.yul\":17317:17318   */\n      0x00\n        /* \"#utility.yul\":17309:17315   */\n      dup3\n        /* \"#utility.yul\":17305:17319   */\n      add\n        /* \"#utility.yul\":17298:17356   */\n      mstore\n        /* \"#utility.yul\":17390:17407   */\n      0x6869732073747564656e742049442e0000000000000000000000000000000000\n        /* \"#utility.yul\":17385:17387   */\n      0x20\n        /* \"#utility.yul\":17377:17383   */\n      dup3\n        /* \"#utility.yul\":17373:17388   */\n      add\n        /* \"#utility.yul\":17366:17408   */\n      mstore\n        /* \"#utility.yul\":17181:17415   */\n      pop\n      jump\t// out\n        /* \"#utility.yul\":17421:17787   */\n    tag_132:\n        /* \"#utility.yul\":17563:17566   */\n      0x00\n        /* \"#utility.yul\":17584:17651   */\n      tag_312\n        /* \"#utility.yul\":17648:17650   */\n      0x2f\n        /* \"#utility.yul\":17643:17646   */\n      dup4\n        /* \"#utility.yul\":17584:17651   */\n      tag_102\n      jump\t// in\n    tag_312:\n        /* \"#utility.yul\":17577:17651   */\n      swap2\n      pop\n        /* \"#utility.yul\":17660:17753   */\n      tag_313\n        /* \"#utility.yul\":17749:17752   */\n      dup3\n        /* \"#utility.yul\":17660:17753   */\n      tag_131\n      jump\t// in\n    tag_313:\n        /* \"#utility.yul\":17778:17780   */\n      0x40\n        /* \"#utility.yul\":17773:17776   */\n      dup3\n        /* \"#utility.yul\":17769:17781   */\n      add\n        /* \"#utility.yul\":17762:17781   */\n      swap1\n      pop\n        /* \"#utility.yul\":17421:17787   */\n      swap2\n      swap1\n      pop\n      jump\t// out\n        /* \"#utility.yul\":17793:18212   */\n    tag_61:\n        /* \"#utility.yul\":17959:17963   */\n      0x00\n        /* \"#utility.yul\":17997:17999   */\n      0x20\n        /* \"#utility.yul\":17986:17995   */\n      dup3\n        /* \"#utility.yul\":17982:18000   */\n      add\n        /* \"#utility.yul\":17974:18000   */\n      swap1\n      pop\n        /* \"#utility.yul\":18046:18055   */\n      dup2\n        /* \"#utility.yul\":18040:18044   */\n      dup2\n        /* \"#utility.yul\":18036:18056   */\n      sub\n        /* \"#utility.yul\":18032:18033   */\n      0x00\n        /* \"#utility.yul\":18021:18030   */\n      dup4\n        /* \"#utility.yul\":18017:18034   */\n      add\n        /* \"#utility.yul\":18010:18057   */\n      mstore\n        /* \"#utility.yul\":18074:18205   */\n      tag_315\n        /* \"#utility.yul\":18200:18204   */\n      dup2\n        /* \"#utility.yul\":18074:18205   */\n      tag_132\n      jump\t// in\n    tag_315:\n        /* \"#utility.yul\":18066:18205   */\n      swap1\n      pop\n        /* \"#utility.yul\":17793:18212   */\n      swap2\n      swap1\n      pop\n      jump\t// out\n\n    auxdata: 0xa2646970667358221220a09e878a1dbd9f66d484ac95b3649e5850f90a9811b444d516cf248c5244843264736f6c634300081a0033\n}\n",
				"bytecode": {
					"linkReferences": {},
					"object": "6080604052348015600e575f80fd5b503360015f6101000a81548173ffffffffffffffffffffffffffffffffffffffff021916908373ffffffffffffffffffffffffffffffffffffffff16021790555061117e8061005c5f395ff3fe608060405234801561000f575f80fd5b5060043610610055575f3560e01c80635e2213f7146100595780638b23d875146100755780638f283970146100a5578063ed0f2e75146100c1578063f851a440146100f4575b5f80fd5b610073600480360381019061006e9190610948565b610112565b005b61008f600480360381019061008a9190610a2f565b61031b565b60405161009c9190610a90565b60405180910390f35b6100bf60048036038101906100ba9190610b03565b610350565b005b6100db60048036038101906100d69190610a2f565b610510565b6040516100eb9493929190610b9d565b60405180910390f35b6100fc6107a3565b6040516101099190610c04565b60405180910390f35b60015f9054906101000a900473ffffffffffffffffffffffffffffffffffffffff1673ffffffffffffffffffffffffffffffffffffffff163373ffffffffffffffffffffffffffffffffffffffff16146101a1576040517f08c379a000000000000000000000000000000000000000000000000000000000815260040161019890610c8d565b60405180910390fd5b5f856040516101b09190610ce5565b90815260200160405180910390206004015f9054906101000a900460ff161561020e576040517f08c379a000000000000000000000000000000000000000000000000000000000815260040161020590610d6b565b60405180910390fd5b6040518060a00160405280858152602001848152602001838152602001828152602001600115158152505f866040516102479190610ce5565b90815260200160405180910390205f820151815f0190816102689190610f83565b50602082015181600101908161027e9190610f83565b5060408201518160020190816102949190610f83565b50606082015181600301556080820151816004015f6101000a81548160ff021916908315150217905550905050846040516102cf9190610ce5565b60405180910390207f98eb45068e1da1f9cc96add03ccb87a8e8e684d20bda8390a73c006f780ebae18585858560405161030c9493929190610b9d565b60405180910390a25050505050565b5f808260405161032b9190610ce5565b90815260200160405180910390206004015f9054906101000a900460ff169050919050565b60015f9054906101000a900473ffffffffffffffffffffffffffffffffffffffff1673ffffffffffffffffffffffffffffffffffffffff163373ffffffffffffffffffffffffffffffffffffffff16146103df576040517f08c379a00000000000000000000000000000000000000000000000000000000081526004016103d690610c8d565b60405180910390fd5b5f73ffffffffffffffffffffffffffffffffffffffff168173ffffffffffffffffffffffffffffffffffffffff160361044d576040517f08c379a00000000000000000000000000000000000000000000000000000000081526004016104449061109c565b60405180910390fd5b5f60015f9054906101000a900473ffffffffffffffffffffffffffffffffffffffff1690508160015f6101000a81548173ffffffffffffffffffffffffffffffffffffffff021916908373ffffffffffffffffffffffffffffffffffffffff1602179055508173ffffffffffffffffffffffffffffffffffffffff168173ffffffffffffffffffffffffffffffffffffffff167f7e644d79422f17c01e4894b5f4f588d331ebfa28653d42ae832dc59e38c9798f60405160405180910390a35050565b60608060605f80856040516105259190610ce5565b90815260200160405180910390206004015f9054906101000a900460ff16610582576040517f08c379a00000000000000000000000000000000000000000000000000000000081526004016105799061112a565b60405180910390fd5b5f80866040516105929190610ce5565b90815260200160405180910390206040518060a00160405290815f820180546105ba90610db6565b80601f01602080910402602001604051908101604052809291908181526020018280546105e690610db6565b80156106315780601f1061060857610100808354040283529160200191610631565b820191905f5260205f20905b81548152906001019060200180831161061457829003601f168201915b5050505050815260200160018201805461064a90610db6565b80601f016020809104026020016040519081016040528092919081815260200182805461067690610db6565b80156106c15780601f10610698576101008083540402835291602001916106c1565b820191905f5260205f20905b8154815290600101906020018083116106a457829003601f168201915b505050505081526020016002820180546106da90610db6565b80601f016020809104026020016040519081016040528092919081815260200182805461070690610db6565b80156107515780601f1061072857610100808354040283529160200191610751565b820191905f5260205f20905b81548152906001019060200180831161073457829003601f168201915b5050505050815260200160038201548152602001600482015f9054906101000a900460ff1615151515815250509050805f01518160200151826040015183606001519450945094509450509193509193565b60015f9054906101000a900473ffffffffffffffffffffffffffffffffffffffff1681565b5f604051905090565b5f80fd5b5f80fd5b5f80fd5b5f80fd5b5f601f19601f8301169050919050565b7f4e487b71000000000000000000000000000000000000000000000000000000005f52604160045260245ffd5b610827826107e1565b810181811067ffffffffffffffff82111715610846576108456107f1565b5b80604052505050565b5f6108586107c8565b9050610864828261081e565b919050565b5f67ffffffffffffffff821115610883576108826107f1565b5b61088c826107e1565b9050602081019050919050565b828183375f83830152505050565b5f6108b96108b484610869565b61084f565b9050828152602081018484840111156108d5576108d46107dd565b5b6108e0848285610899565b509392505050565b5f82601f8301126108fc576108fb6107d9565b5b813561090c8482602086016108a7565b91505092915050565b5f819050919050565b61092781610915565b8114610931575f80fd5b50565b5f813590506109428161091e565b92915050565b5f805f805f60a08688031215610961576109606107d1565b5b5f86013567ffffffffffffffff81111561097e5761097d6107d5565b5b61098a888289016108e8565b955050602086013567ffffffffffffffff8111156109ab576109aa6107d5565b5b6109b7888289016108e8565b945050604086013567ffffffffffffffff8111156109d8576109d76107d5565b5b6109e4888289016108e8565b935050606086013567ffffffffffffffff811115610a0557610a046107d5565b5b610a11888289016108e8565b9250506080610a2288828901610934565b9150509295509295909350565b5f60208284031215610a4457610a436107d1565b5b5f82013567ffffffffffffffff811115610a6157610a606107d5565b5b610a6d848285016108e8565b91505092915050565b5f8115159050919050565b610a8a81610a76565b82525050565b5f602082019050610aa35f830184610a81565b92915050565b5f73ffffffffffffffffffffffffffffffffffffffff82169050919050565b5f610ad282610aa9565b9050919050565b610ae281610ac8565b8114610aec575f80fd5b50565b5f81359050610afd81610ad9565b92915050565b5f60208284031215610b1857610b176107d1565b5b5f610b2584828501610aef565b91505092915050565b5f81519050919050565b5f82825260208201905092915050565b8281835e5f83830152505050565b5f610b6082610b2e565b610b6a8185610b38565b9350610b7a818560208601610b48565b610b83816107e1565b840191505092915050565b610b9781610915565b82525050565b5f6080820190508181035f830152610bb58187610b56565b90508181036020830152610bc98186610b56565b90508181036040830152610bdd8185610b56565b9050610bec6060830184610b8e565b95945050505050565b610bfe81610ac8565b82525050565b5f602082019050610c175f830184610bf5565b92915050565b7f4f6e6c79207468652061646d696e6973747261746f722063616e20706572666f5f8201527f726d207468697320616374696f6e2e0000000000000000000000000000000000602082015250565b5f610c77602f83610b38565b9150610c8282610c1d565b604082019050919050565b5f6020820190508181035f830152610ca481610c6b565b9050919050565b5f81905092915050565b5f610cbf82610b2e565b610cc98185610cab565b9350610cd9818560208601610b48565b80840191505092915050565b5f610cf08284610cb5565b915081905092915050565b7f436572746966696361746520616c72656164792065786973747320666f7220745f8201527f6869732073747564656e742049442e0000000000000000000000000000000000602082015250565b5f610d55602f83610b38565b9150610d6082610cfb565b604082019050919050565b5f6020820190508181035f830152610d8281610d49565b9050919050565b7f4e487b71000000000000000000000000000000000000000000000000000000005f52602260045260245ffd5b5f6002820490506001821680610dcd57607f821691505b602082108103610de057610ddf610d89565b5b50919050565b5f819050815f5260205f209050919050565b5f6020601f8301049050919050565b5f82821b905092915050565b5f60088302610e427fffffffffffffffffffffffffffffffffffffffffffffffffffffffffffffffff82610e07565b610e4c8683610e07565b95508019841693508086168417925050509392505050565b5f819050919050565b5f610e87610e82610e7d84610915565b610e64565b610915565b9050919050565b5f819050919050565b610ea083610e6d565b610eb4610eac82610e8e565b848454610e13565b825550505050565b5f90565b610ec8610ebc565b610ed3818484610e97565b505050565b5b81811015610ef657610eeb5f82610ec0565b600181019050610ed9565b5050565b601f821115610f3b57610f0c81610de6565b610f1584610df8565b81016020851015610f24578190505b610f38610f3085610df8565b830182610ed8565b50505b505050565b5f82821c905092915050565b5f610f5b5f1984600802610f40565b1980831691505092915050565b5f610f738383610f4c565b9150826002028217905092915050565b610f8c82610b2e565b67ffffffffffffffff811115610fa557610fa46107f1565b5b610faf8254610db6565b610fba828285610efa565b5f60209050601f831160018114610feb575f8415610fd9578287015190505b610fe38582610f68565b86555061104a565b601f198416610ff986610de6565b5f5b8281101561102057848901518255600182019150602085019450602081019050610ffb565b8683101561103d5784890151611039601f891682610f4c565b8355505b6001600288020188555050505b505050505050565b7f496e76616c69642061646d696e20616464726573732e000000000000000000005f82015250565b5f611086601683610b38565b915061109182611052565b602082019050919050565b5f6020820190508181035f8301526110b38161107a565b9050919050565b7f436572746966696361746520646f6573206e6f7420657869737420666f7220745f8201527f6869732073747564656e742049442e0000000000000000000000000000000000602082015250565b5f611114602f83610b38565b915061111f826110ba565b604082019050919050565b5f6020820190508181035f83015261114181611108565b905091905056fea2646970667358221220a09e878a1dbd9f66d484ac95b3649e5850f90a9811b444d516cf248c5244843264736f6c634300081a0033",
					"opcodes": "PUSH1 0x80 PUSH1 0x40 MSTORE CALLVALUE DUP1 ISZERO PUSH1 0xE JUMPI PUSH0 DUP1 REVERT JUMPDEST POP CALLER PUSH1 0x1 PUSH0 PUSH2 0x100 EXP DUP2 SLOAD DUP2 PUSH20 0xFFFFFFFFFFFFFFFFFFFFFFFFFFFFFFFFFFFFFFFF MUL NOT AND SWAP1 DUP4 PUSH20 0xFFFFFFFFFFFFFFFFFFFFFFFFFFFFFFFFFFFFFFFF AND MUL OR SWAP1 SSTORE POP PUSH2 0x117E DUP1 PUSH2 0x5C PUSH0 CODECOPY PUSH0 RETURN INVALID PUSH1 0x80 PUSH1 0x40 MSTORE CALLVALUE DUP1 ISZERO PUSH2 0xF JUMPI PUSH0 DUP1 REVERT JUMPDEST POP PUSH1 0x4 CALLDATASIZE LT PUSH2 0x55 JUMPI PUSH0 CALLDATALOAD PUSH1 0xE0 SHR DUP1 PUSH4 0x5E2213F7 EQ PUSH2 0x59 JUMPI DUP1 PUSH4 0x8B23D875 EQ PUSH2 0x75 JUMPI DUP1 PUSH4 0x8F283970 EQ PUSH2 0xA5 JUMPI DUP1 PUSH4 0xED0F2E75 EQ PUSH2 0xC1 JUMPI DUP1 PUSH4 0xF851A440 EQ PUSH2 0xF4 JUMPI JUMPDEST PUSH0 DUP1 REVERT JUMPDEST PUSH2 0x73 PUSH1 0x4 DUP1 CALLDATASIZE SUB DUP2 ADD SWAP1 PUSH2 0x6E SWAP2 SWAP1 PUSH2 0x948 JUMP JUMPDEST PUSH2 0x112 JUMP JUMPDEST STOP JUMPDEST PUSH2 0x8F PUSH1 0x4 DUP1 CALLDATASIZE SUB DUP2 ADD SWAP1 PUSH2 0x8A SWAP2 SWAP1 PUSH2 0xA2F JUMP JUMPDEST PUSH2 0x31B JUMP JUMPDEST PUSH1 0x40 MLOAD PUSH2 0x9C SWAP2 SWAP1 PUSH2 0xA90 JUMP JUMPDEST PUSH1 0x40 MLOAD DUP1 SWAP2 SUB SWAP1 RETURN JUMPDEST PUSH2 0xBF PUSH1 0x4 DUP1 CALLDATASIZE SUB DUP2 ADD SWAP1 PUSH2 0xBA SWAP2 SWAP1 PUSH2 0xB03 JUMP JUMPDEST PUSH2 0x350 JUMP JUMPDEST STOP JUMPDEST PUSH2 0xDB PUSH1 0x4 DUP1 CALLDATASIZE SUB DUP2 ADD SWAP1 PUSH2 0xD6 SWAP2 SWAP1 PUSH2 0xA2F JUMP JUMPDEST PUSH2 0x510 JUMP JUMPDEST PUSH1 0x40 MLOAD PUSH2 0xEB SWAP5 SWAP4 SWAP3 SWAP2 SWAP1 PUSH2 0xB9D JUMP JUMPDEST PUSH1 0x40 MLOAD DUP1 SWAP2 SUB SWAP1 RETURN JUMPDEST PUSH2 0xFC PUSH2 0x7A3 JUMP JUMPDEST PUSH1 0x40 MLOAD PUSH2 0x109 SWAP2 SWAP1 PUSH2 0xC04 JUMP JUMPDEST PUSH1 0x40 MLOAD DUP1 SWAP2 SUB SWAP1 RETURN JUMPDEST PUSH1 0x1 PUSH0 SWAP1 SLOAD SWAP1 PUSH2 0x100 EXP SWAP1 DIV PUSH20 0xFFFFFFFFFFFFFFFFFFFFFFFFFFFFFFFFFFFFFFFF AND PUSH20 0xFFFFFFFFFFFFFFFFFFFFFFFFFFFFFFFFFFFFFFFF AND CALLER PUSH20 0xFFFFFFFFFFFFFFFFFFFFFFFFFFFFFFFFFFFFFFFF AND EQ PUSH2 0x1A1 JUMPI PUSH1 0x40 MLOAD PUSH32 0x8C379A000000000000000000000000000000000000000000000000000000000 DUP2 MSTORE PUSH1 0x4 ADD PUSH2 0x198 SWAP1 PUSH2 0xC8D JUMP JUMPDEST PUSH1 0x40 MLOAD DUP1 SWAP2 SUB SWAP1 REVERT JUMPDEST PUSH0 DUP6 PUSH1 0x40 MLOAD PUSH2 0x1B0 SWAP2 SWAP1 PUSH2 0xCE5 JUMP JUMPDEST SWAP1 DUP2 MSTORE PUSH1 0x20 ADD PUSH1 0x40 MLOAD DUP1 SWAP2 SUB SWAP1 KECCAK256 PUSH1 0x4 ADD PUSH0 SWAP1 SLOAD SWAP1 PUSH2 0x100 EXP SWAP1 DIV PUSH1 0xFF AND ISZERO PUSH2 0x20E JUMPI PUSH1 0x40 MLOAD PUSH32 0x8C379A000000000000000000000000000000000000000000000000000000000 DUP2 MSTORE PUSH1 0x4 ADD PUSH2 0x205 SWAP1 PUSH2 0xD6B JUMP JUMPDEST PUSH1 0x40 MLOAD DUP1 SWAP2 SUB SWAP1 REVERT JUMPDEST PUSH1 0x40 MLOAD DUP1 PUSH1 0xA0 ADD PUSH1 0x40 MSTORE DUP1 DUP6 DUP2 MSTORE PUSH1 0x20 ADD DUP5 DUP2 MSTORE PUSH1 0x20 ADD DUP4 DUP2 MSTORE PUSH1 0x20 ADD DUP3 DUP2 MSTORE PUSH1 0x20 ADD PUSH1 0x1 ISZERO ISZERO DUP2 MSTORE POP PUSH0 DUP7 PUSH1 0x40 MLOAD PUSH2 0x247 SWAP2 SWAP1 PUSH2 0xCE5 JUMP JUMPDEST SWAP1 DUP2 MSTORE PUSH1 0x20 ADD PUSH1 0x40 MLOAD DUP1 SWAP2 SUB SWAP1 KECCAK256 PUSH0 DUP3 ADD MLOAD DUP2 PUSH0 ADD SWAP1 DUP2 PUSH2 0x268 SWAP2 SWAP1 PUSH2 0xF83 JUMP JUMPDEST POP PUSH1 0x20 DUP3 ADD MLOAD DUP2 PUSH1 0x1 ADD SWAP1 DUP2 PUSH2 0x27E SWAP2 SWAP1 PUSH2 0xF83 JUMP JUMPDEST POP PUSH1 0x40 DUP3 ADD MLOAD DUP2 PUSH1 0x2 ADD SWAP1 DUP2 PUSH2 0x294 SWAP2 SWAP1 PUSH2 0xF83 JUMP JUMPDEST POP PUSH1 0x60 DUP3 ADD MLOAD DUP2 PUSH1 0x3 ADD SSTORE PUSH1 0x80 DUP3 ADD MLOAD DUP2 PUSH1 0x4 ADD PUSH0 PUSH2 0x100 EXP DUP2 SLOAD DUP2 PUSH1 0xFF MUL NOT AND SWAP1 DUP4 ISZERO ISZERO MUL OR SWAP1 SSTORE POP SWAP1 POP POP DUP5 PUSH1 0x40 MLOAD PUSH2 0x2CF SWAP2 SWAP1 PUSH2 0xCE5 JUMP JUMPDEST PUSH1 0x40 MLOAD DUP1 SWAP2 SUB SWAP1 KECCAK256 PUSH32 0x98EB45068E1DA1F9CC96ADD03CCB87A8E8E684D20BDA8390A73C006F780EBAE1 DUP6 DUP6 DUP6 DUP6 PUSH1 0x40 MLOAD PUSH2 0x30C SWAP5 SWAP4 SWAP3 SWAP2 SWAP1 PUSH2 0xB9D JUMP JUMPDEST PUSH1 0x40 MLOAD DUP1 SWAP2 SUB SWAP1 LOG2 POP POP POP POP POP JUMP JUMPDEST PUSH0 DUP1 DUP3 PUSH1 0x40 MLOAD PUSH2 0x32B SWAP2 SWAP1 PUSH2 0xCE5 JUMP JUMPDEST SWAP1 DUP2 MSTORE PUSH1 0x20 ADD PUSH1 0x40 MLOAD DUP1 SWAP2 SUB SWAP1 KECCAK256 PUSH1 0x4 ADD PUSH0 SWAP1 SLOAD SWAP1 PUSH2 0x100 EXP SWAP1 DIV PUSH1 0xFF AND SWAP1 POP SWAP2 SWAP1 POP JUMP JUMPDEST PUSH1 0x1 PUSH0 SWAP1 SLOAD SWAP1 PUSH2 0x100 EXP SWAP1 DIV PUSH20 0xFFFFFFFFFFFFFFFFFFFFFFFFFFFFFFFFFFFFFFFF AND PUSH20 0xFFFFFFFFFFFFFFFFFFFFFFFFFFFFFFFFFFFFFFFF AND CALLER PUSH20 0xFFFFFFFFFFFFFFFFFFFFFFFFFFFFFFFFFFFFFFFF AND EQ PUSH2 0x3DF JUMPI PUSH1 0x40 MLOAD PUSH32 0x8C379A000000000000000000000000000000000000000000000000000000000 DUP2 MSTORE PUSH1 0x4 ADD PUSH2 0x3D6 SWAP1 PUSH2 0xC8D JUMP JUMPDEST PUSH1 0x40 MLOAD DUP1 SWAP2 SUB SWAP1 REVERT JUMPDEST PUSH0 PUSH20 0xFFFFFFFFFFFFFFFFFFFFFFFFFFFFFFFFFFFFFFFF AND DUP2 PUSH20 0xFFFFFFFFFFFFFFFFFFFFFFFFFFFFFFFFFFFFFFFF AND SUB PUSH2 0x44D JUMPI PUSH1 0x40 MLOAD PUSH32 0x8C379A000000000000000000000000000000000000000000000000000000000 DUP2 MSTORE PUSH1 0x4 ADD PUSH2 0x444 SWAP1 PUSH2 0x109C JUMP JUMPDEST PUSH1 0x40 MLOAD DUP1 SWAP2 SUB SWAP1 REVERT JUMPDEST PUSH0 PUSH1 0x1 PUSH0 SWAP1 SLOAD SWAP1 PUSH2 0x100 EXP SWAP1 DIV PUSH20 0xFFFFFFFFFFFFFFFFFFFFFFFFFFFFFFFFFFFFFFFF AND SWAP1 POP DUP2 PUSH1 0x1 PUSH0 PUSH2 0x100 EXP DUP2 SLOAD DUP2 PUSH20 0xFFFFFFFFFFFFFFFFFFFFFFFFFFFFFFFFFFFFFFFF MUL NOT AND SWAP1 DUP4 PUSH20 0xFFFFFFFFFFFFFFFFFFFFFFFFFFFFFFFFFFFFFFFF AND MUL OR SWAP1 SSTORE POP DUP2 PUSH20 0xFFFFFFFFFFFFFFFFFFFFFFFFFFFFFFFFFFFFFFFF AND DUP2 PUSH20 0xFFFFFFFFFFFFFFFFFFFFFFFFFFFFFFFFFFFFFFFF AND PUSH32 0x7E644D79422F17C01E4894B5F4F588D331EBFA28653D42AE832DC59E38C9798F PUSH1 0x40 MLOAD PUSH1 0x40 MLOAD DUP1 SWAP2 SUB SWAP1 LOG3 POP POP JUMP JUMPDEST PUSH1 0x60 DUP1 PUSH1 0x60 PUSH0 DUP1 DUP6 PUSH1 0x40 MLOAD PUSH2 0x525 SWAP2 SWAP1 PUSH2 0xCE5 JUMP JUMPDEST SWAP1 DUP2 MSTORE PUSH1 0x20 ADD PUSH1 0x40 MLOAD DUP1 SWAP2 SUB SWAP1 KECCAK256 PUSH1 0x4 ADD PUSH0 SWAP1 SLOAD SWAP1 PUSH2 0x100 EXP SWAP1 DIV PUSH1 0xFF AND PUSH2 0x582 JUMPI PUSH1 0x40 MLOAD PUSH32 0x8C379A000000000000000000000000000000000000000000000000000000000 DUP2 MSTORE PUSH1 0x4 ADD PUSH2 0x579 SWAP1 PUSH2 0x112A JUMP JUMPDEST PUSH1 0x40 MLOAD DUP1 SWAP2 SUB SWAP1 REVERT JUMPDEST PUSH0 DUP1 DUP7 PUSH1 0x40 MLOAD PUSH2 0x592 SWAP2 SWAP1 PUSH2 0xCE5 JUMP JUMPDEST SWAP1 DUP2 MSTORE PUSH1 0x20 ADD PUSH1 0x40 MLOAD DUP1 SWAP2 SUB SWAP1 KECCAK256 PUSH1 0x40 MLOAD DUP1 PUSH1 0xA0 ADD PUSH1 0x40 MSTORE SWAP1 DUP2 PUSH0 DUP3 ADD DUP1 SLOAD PUSH2 0x5BA SWAP1 PUSH2 0xDB6 JUMP JUMPDEST DUP1 PUSH1 0x1F ADD PUSH1 0x20 DUP1 SWAP2 DIV MUL PUSH1 0x20 ADD PUSH1 0x40 MLOAD SWAP1 DUP2 ADD PUSH1 0x40 MSTORE DUP1 SWAP3 SWAP2 SWAP1 DUP2 DUP2 MSTORE PUSH1 0x20 ADD DUP3 DUP1 SLOAD PUSH2 0x5E6 SWAP1 PUSH2 0xDB6 JUMP JUMPDEST DUP1 ISZERO PUSH2 0x631 JUMPI DUP1 PUSH1 0x1F LT PUSH2 0x608 JUMPI PUSH2 0x100 DUP1 DUP4 SLOAD DIV MUL DUP4 MSTORE SWAP2 PUSH1 0x20 ADD SWAP2 PUSH2 0x631 JUMP JUMPDEST DUP3 ADD SWAP2 SWAP1 PUSH0 MSTORE PUSH1 0x20 PUSH0 KECCAK256 SWAP1 JUMPDEST DUP2 SLOAD DUP2 MSTORE SWAP1 PUSH1 0x1 ADD SWAP1 PUSH1 0x20 ADD DUP1 DUP4 GT PUSH2 0x614 JUMPI DUP3 SWAP1 SUB PUSH1 0x1F AND DUP3 ADD SWAP2 JUMPDEST POP POP POP POP POP DUP2 MSTORE PUSH1 0x20 ADD PUSH1 0x1 DUP3 ADD DUP1 SLOAD PUSH2 0x64A SWAP1 PUSH2 0xDB6 JUMP JUMPDEST DUP1 PUSH1 0x1F ADD PUSH1 0x20 DUP1 SWAP2 DIV MUL PUSH1 0x20 ADD PUSH1 0x40 MLOAD SWAP1 DUP2 ADD PUSH1 0x40 MSTORE DUP1 SWAP3 SWAP2 SWAP1 DUP2 DUP2 MSTORE PUSH1 0x20 ADD DUP3 DUP1 SLOAD PUSH2 0x676 SWAP1 PUSH2 0xDB6 JUMP JUMPDEST DUP1 ISZERO PUSH2 0x6C1 JUMPI DUP1 PUSH1 0x1F LT PUSH2 0x698 JUMPI PUSH2 0x100 DUP1 DUP4 SLOAD DIV MUL DUP4 MSTORE SWAP2 PUSH1 0x20 ADD SWAP2 PUSH2 0x6C1 JUMP JUMPDEST DUP3 ADD SWAP2 SWAP1 PUSH0 MSTORE PUSH1 0x20 PUSH0 KECCAK256 SWAP1 JUMPDEST DUP2 SLOAD DUP2 MSTORE SWAP1 PUSH1 0x1 ADD SWAP1 PUSH1 0x20 ADD DUP1 DUP4 GT PUSH2 0x6A4 JUMPI DUP3 SWAP1 SUB PUSH1 0x1F AND DUP3 ADD SWAP2 JUMPDEST POP POP POP POP POP DUP2 MSTORE PUSH1 0x20 ADD PUSH1 0x2 DUP3 ADD DUP1 SLOAD PUSH2 0x6DA SWAP1 PUSH2 0xDB6 JUMP JUMPDEST DUP1 PUSH1 0x1F ADD PUSH1 0x20 DUP1 SWAP2 DIV MUL PUSH1 0x20 ADD PUSH1 0x40 MLOAD SWAP1 DUP2 ADD PUSH1 0x40 MSTORE DUP1 SWAP3 SWAP2 SWAP1 DUP2 DUP2 MSTORE PUSH1 0x20 ADD DUP3 DUP1 SLOAD PUSH2 0x706 SWAP1 PUSH2 0xDB6 JUMP JUMPDEST DUP1 ISZERO PUSH2 0x751 JUMPI DUP1 PUSH1 0x1F LT PUSH2 0x728 JUMPI PUSH2 0x100 DUP1 DUP4 SLOAD DIV MUL DUP4 MSTORE SWAP2 PUSH1 0x20 ADD SWAP2 PUSH2 0x751 JUMP JUMPDEST DUP3 ADD SWAP2 SWAP1 PUSH0 MSTORE PUSH1 0x20 PUSH0 KECCAK256 SWAP1 JUMPDEST DUP2 SLOAD DUP2 MSTORE SWAP1 PUSH1 0x1 ADD SWAP1 PUSH1 0x20 ADD DUP1 DUP4 GT PUSH2 0x734 JUMPI DUP3 SWAP1 SUB PUSH1 0x1F AND DUP3 ADD SWAP2 JUMPDEST POP POP POP POP POP DUP2 MSTORE PUSH1 0x20 ADD PUSH1 0x3 DUP3 ADD SLOAD DUP2 MSTORE PUSH1 0x20 ADD PUSH1 0x4 DUP3 ADD PUSH0 SWAP1 SLOAD SWAP1 PUSH2 0x100 EXP SWAP1 DIV PUSH1 0xFF AND ISZERO ISZERO ISZERO ISZERO DUP2 MSTORE POP POP SWAP1 POP DUP1 PUSH0 ADD MLOAD DUP2 PUSH1 0x20 ADD MLOAD DUP3 PUSH1 0x40 ADD MLOAD DUP4 PUSH1 0x60 ADD MLOAD SWAP5 POP SWAP5 POP SWAP5 POP SWAP5 POP POP SWAP2 SWAP4 POP SWAP2 SWAP4 JUMP JUMPDEST PUSH1 0x1 PUSH0 SWAP1 SLOAD SWAP1 PUSH2 0x100 EXP SWAP1 DIV PUSH20 0xFFFFFFFFFFFFFFFFFFFFFFFFFFFFFFFFFFFFFFFF AND DUP2 JUMP JUMPDEST PUSH0 PUSH1 0x40 MLOAD SWAP1 POP SWAP1 JUMP JUMPDEST PUSH0 DUP1 REVERT JUMPDEST PUSH0 DUP1 REVERT JUMPDEST PUSH0 DUP1 REVERT JUMPDEST PUSH0 DUP1 REVERT JUMPDEST PUSH0 PUSH1 0x1F NOT PUSH1 0x1F DUP4 ADD AND SWAP1 POP SWAP2 SWAP1 POP JUMP JUMPDEST PUSH32 0x4E487B7100000000000000000000000000000000000000000000000000000000 PUSH0 MSTORE PUSH1 0x41 PUSH1 0x4 MSTORE PUSH1 0x24 PUSH0 REVERT JUMPDEST PUSH2 0x827 DUP3 PUSH2 0x7E1 JUMP JUMPDEST DUP2 ADD DUP2 DUP2 LT PUSH8 0xFFFFFFFFFFFFFFFF DUP3 GT OR ISZERO PUSH2 0x846 JUMPI PUSH2 0x845 PUSH2 0x7F1 JUMP JUMPDEST JUMPDEST DUP1 PUSH1 0x40 MSTORE POP POP POP JUMP JUMPDEST PUSH0 PUSH2 0x858 PUSH2 0x7C8 JUMP JUMPDEST SWAP1 POP PUSH2 0x864 DUP3 DUP3 PUSH2 0x81E JUMP JUMPDEST SWAP2 SWAP1 POP JUMP JUMPDEST PUSH0 PUSH8 0xFFFFFFFFFFFFFFFF DUP3 GT ISZERO PUSH2 0x883 JUMPI PUSH2 0x882 PUSH2 0x7F1 JUMP JUMPDEST JUMPDEST PUSH2 0x88C DUP3 PUSH2 0x7E1 JUMP JUMPDEST SWAP1 POP PUSH1 0x20 DUP2 ADD SWAP1 POP SWAP2 SWAP1 POP JUMP JUMPDEST DUP3 DUP2 DUP4 CALLDATACOPY PUSH0 DUP4 DUP4 ADD MSTORE POP POP POP JUMP JUMPDEST PUSH0 PUSH2 0x8B9 PUSH2 0x8B4 DUP5 PUSH2 0x869 JUMP JUMPDEST PUSH2 0x84F JUMP JUMPDEST SWAP1 POP DUP3 DUP2 MSTORE PUSH1 0x20 DUP2 ADD DUP5 DUP5 DUP5 ADD GT ISZERO PUSH2 0x8D5 JUMPI PUSH2 0x8D4 PUSH2 0x7DD JUMP JUMPDEST JUMPDEST PUSH2 0x8E0 DUP5 DUP3 DUP6 PUSH2 0x899 JUMP JUMPDEST POP SWAP4 SWAP3 POP POP POP JUMP JUMPDEST PUSH0 DUP3 PUSH1 0x1F DUP4 ADD SLT PUSH2 0x8FC JUMPI PUSH2 0x8FB PUSH2 0x7D9 JUMP JUMPDEST JUMPDEST DUP2 CALLDATALOAD PUSH2 0x90C DUP5 DUP3 PUSH1 0x20 DUP7 ADD PUSH2 0x8A7 JUMP JUMPDEST SWAP2 POP POP SWAP3 SWAP2 POP POP JUMP JUMPDEST PUSH0 DUP2 SWAP1 POP SWAP2 SWAP1 POP JUMP JUMPDEST PUSH2 0x927 DUP2 PUSH2 0x915 JUMP JUMPDEST DUP2 EQ PUSH2 0x931 JUMPI PUSH0 DUP1 REVERT JUMPDEST POP JUMP JUMPDEST PUSH0 DUP2 CALLDATALOAD SWAP1 POP PUSH2 0x942 DUP2 PUSH2 0x91E JUMP JUMPDEST SWAP3 SWAP2 POP POP JUMP JUMPDEST PUSH0 DUP1 PUSH0 DUP1 PUSH0 PUSH1 0xA0 DUP7 DUP9 SUB SLT ISZERO PUSH2 0x961 JUMPI PUSH2 0x960 PUSH2 0x7D1 JUMP JUMPDEST JUMPDEST PUSH0 DUP7 ADD CALLDATALOAD PUSH8 0xFFFFFFFFFFFFFFFF DUP2 GT ISZERO PUSH2 0x97E JUMPI PUSH2 0x97D PUSH2 0x7D5 JUMP JUMPDEST JUMPDEST PUSH2 0x98A DUP9 DUP3 DUP10 ADD PUSH2 0x8E8 JUMP JUMPDEST SWAP6 POP POP PUSH1 0x20 DUP7 ADD CALLDATALOAD PUSH8 0xFFFFFFFFFFFFFFFF DUP2 GT ISZERO PUSH2 0x9AB JUMPI PUSH2 0x9AA PUSH2 0x7D5 JUMP JUMPDEST JUMPDEST PUSH2 0x9B7 DUP9 DUP3 DUP10 ADD PUSH2 0x8E8 JUMP JUMPDEST SWAP5 POP POP PUSH1 0x40 DUP7 ADD CALLDATALOAD PUSH8 0xFFFFFFFFFFFFFFFF DUP2 GT ISZERO PUSH2 0x9D8 JUMPI PUSH2 0x9D7 PUSH2 0x7D5 JUMP JUMPDEST JUMPDEST PUSH2 0x9E4 DUP9 DUP3 DUP10 ADD PUSH2 0x8E8 JUMP JUMPDEST SWAP4 POP POP PUSH1 0x60 DUP7 ADD CALLDATALOAD PUSH8 0xFFFFFFFFFFFFFFFF DUP2 GT ISZERO PUSH2 0xA05 JUMPI PUSH2 0xA04 PUSH2 0x7D5 JUMP JUMPDEST JUMPDEST PUSH2 0xA11 DUP9 DUP3 DUP10 ADD PUSH2 0x8E8 JUMP JUMPDEST SWAP3 POP POP PUSH1 0x80 PUSH2 0xA22 DUP9 DUP3 DUP10 ADD PUSH2 0x934 JUMP JUMPDEST SWAP2 POP POP SWAP3 SWAP6 POP SWAP3 SWAP6 SWAP1 SWAP4 POP JUMP JUMPDEST PUSH0 PUSH1 0x20 DUP3 DUP5 SUB SLT ISZERO PUSH2 0xA44 JUMPI PUSH2 0xA43 PUSH2 0x7D1 JUMP JUMPDEST JUMPDEST PUSH0 DUP3 ADD CALLDATALOAD PUSH8 0xFFFFFFFFFFFFFFFF DUP2 GT ISZERO PUSH2 0xA61 JUMPI PUSH2 0xA60 PUSH2 0x7D5 JUMP JUMPDEST JUMPDEST PUSH2 0xA6D DUP5 DUP3 DUP6 ADD PUSH2 0x8E8 JUMP JUMPDEST SWAP2 POP POP SWAP3 SWAP2 POP POP JUMP JUMPDEST PUSH0 DUP2 ISZERO ISZERO SWAP1 POP SWAP2 SWAP1 POP JUMP JUMPDEST PUSH2 0xA8A DUP2 PUSH2 0xA76 JUMP JUMPDEST DUP3 MSTORE POP POP JUMP JUMPDEST PUSH0 PUSH1 0x20 DUP3 ADD SWAP1 POP PUSH2 0xAA3 PUSH0 DUP4 ADD DUP5 PUSH2 0xA81 JUMP JUMPDEST SWAP3 SWAP2 POP POP JUMP JUMPDEST PUSH0 PUSH20 0xFFFFFFFFFFFFFFFFFFFFFFFFFFFFFFFFFFFFFFFF DUP3 AND SWAP1 POP SWAP2 SWAP1 POP JUMP JUMPDEST PUSH0 PUSH2 0xAD2 DUP3 PUSH2 0xAA9 JUMP JUMPDEST SWAP1 POP SWAP2 SWAP1 POP JUMP JUMPDEST PUSH2 0xAE2 DUP2 PUSH2 0xAC8 JUMP JUMPDEST DUP2 EQ PUSH2 0xAEC JUMPI PUSH0 DUP1 REVERT JUMPDEST POP JUMP JUMPDEST PUSH0 DUP2 CALLDATALOAD SWAP1 POP PUSH2 0xAFD DUP2 PUSH2 0xAD9 JUMP JUMPDEST SWAP3 SWAP2 POP POP JUMP JUMPDEST PUSH0 PUSH1 0x20 DUP3 DUP5 SUB SLT ISZERO PUSH2 0xB18 JUMPI PUSH2 0xB17 PUSH2 0x7D1 JUMP JUMPDEST JUMPDEST PUSH0 PUSH2 0xB25 DUP5 DUP3 DUP6 ADD PUSH2 0xAEF JUMP JUMPDEST SWAP2 POP POP SWAP3 SWAP2 POP POP JUMP JUMPDEST PUSH0 DUP2 MLOAD SWAP1 POP SWAP2 SWAP1 POP JUMP JUMPDEST PUSH0 DUP3 DUP3 MSTORE PUSH1 0x20 DUP3 ADD SWAP1 POP SWAP3 SWAP2 POP POP JUMP JUMPDEST DUP3 DUP2 DUP4 MCOPY PUSH0 DUP4 DUP4 ADD MSTORE POP POP POP JUMP JUMPDEST PUSH0 PUSH2 0xB60 DUP3 PUSH2 0xB2E JUMP JUMPDEST PUSH2 0xB6A DUP2 DUP6 PUSH2 0xB38 JUMP JUMPDEST SWAP4 POP PUSH2 0xB7A DUP2 DUP6 PUSH1 0x20 DUP7 ADD PUSH2 0xB48 JUMP JUMPDEST PUSH2 0xB83 DUP2 PUSH2 0x7E1 JUMP JUMPDEST DUP5 ADD SWAP2 POP POP SWAP3 SWAP2 POP POP JUMP JUMPDEST PUSH2 0xB97 DUP2 PUSH2 0x915 JUMP JUMPDEST DUP3 MSTORE POP POP JUMP JUMPDEST PUSH0 PUSH1 0x80 DUP3 ADD SWAP1 POP DUP2 DUP2 SUB PUSH0 DUP4 ADD MSTORE PUSH2 0xBB5 DUP2 DUP8 PUSH2 0xB56 JUMP JUMPDEST SWAP1 POP DUP2 DUP2 SUB PUSH1 0x20 DUP4 ADD MSTORE PUSH2 0xBC9 DUP2 DUP7 PUSH2 0xB56 JUMP JUMPDEST SWAP1 POP DUP2 DUP2 SUB PUSH1 0x40 DUP4 ADD MSTORE PUSH2 0xBDD DUP2 DUP6 PUSH2 0xB56 JUMP JUMPDEST SWAP1 POP PUSH2 0xBEC PUSH1 0x60 DUP4 ADD DUP5 PUSH2 0xB8E JUMP JUMPDEST SWAP6 SWAP5 POP POP POP POP POP JUMP JUMPDEST PUSH2 0xBFE DUP2 PUSH2 0xAC8 JUMP JUMPDEST DUP3 MSTORE POP POP JUMP JUMPDEST PUSH0 PUSH1 0x20 DUP3 ADD SWAP1 POP PUSH2 0xC17 PUSH0 DUP4 ADD DUP5 PUSH2 0xBF5 JUMP JUMPDEST SWAP3 SWAP2 POP POP JUMP JUMPDEST PUSH32 0x4F6E6C79207468652061646D696E6973747261746F722063616E20706572666F PUSH0 DUP3 ADD MSTORE PUSH32 0x726D207468697320616374696F6E2E0000000000000000000000000000000000 PUSH1 0x20 DUP3 ADD MSTORE POP JUMP JUMPDEST PUSH0 PUSH2 0xC77 PUSH1 0x2F DUP4 PUSH2 0xB38 JUMP JUMPDEST SWAP2 POP PUSH2 0xC82 DUP3 PUSH2 0xC1D JUMP JUMPDEST PUSH1 0x40 DUP3 ADD SWAP1 POP SWAP2 SWAP1 POP JUMP JUMPDEST PUSH0 PUSH1 0x20 DUP3 ADD SWAP1 POP DUP2 DUP2 SUB PUSH0 DUP4 ADD MSTORE PUSH2 0xCA4 DUP2 PUSH2 0xC6B JUMP JUMPDEST SWAP1 POP SWAP2 SWAP1 POP JUMP JUMPDEST PUSH0 DUP2 SWAP1 POP SWAP3 SWAP2 POP POP JUMP JUMPDEST PUSH0 PUSH2 0xCBF DUP3 PUSH2 0xB2E JUMP JUMPDEST PUSH2 0xCC9 DUP2 DUP6 PUSH2 0xCAB JUMP JUMPDEST SWAP4 POP PUSH2 0xCD9 DUP2 DUP6 PUSH1 0x20 DUP7 ADD PUSH2 0xB48 JUMP JUMPDEST DUP1 DUP5 ADD SWAP2 POP POP SWAP3 SWAP2 POP POP JUMP JUMPDEST PUSH0 PUSH2 0xCF0 DUP3 DUP5 PUSH2 0xCB5 JUMP JUMPDEST SWAP2 POP DUP2 SWAP1 POP SWAP3 SWAP2 POP POP JUMP JUMPDEST PUSH32 0x436572746966696361746520616C72656164792065786973747320666F722074 PUSH0 DUP3 ADD MSTORE PUSH32 0x6869732073747564656E742049442E0000000000000000000000000000000000 PUSH1 0x20 DUP3 ADD MSTORE POP JUMP JUMPDEST PUSH0 PUSH2 0xD55 PUSH1 0x2F DUP4 PUSH2 0xB38 JUMP JUMPDEST SWAP2 POP PUSH2 0xD60 DUP3 PUSH2 0xCFB JUMP JUMPDEST PUSH1 0x40 DUP3 ADD SWAP1 POP SWAP2 SWAP1 POP JUMP JUMPDEST PUSH0 PUSH1 0x20 DUP3 ADD SWAP1 POP DUP2 DUP2 SUB PUSH0 DUP4 ADD MSTORE PUSH2 0xD82 DUP2 PUSH2 0xD49 JUMP JUMPDEST SWAP1 POP SWAP2 SWAP1 POP JUMP JUMPDEST PUSH32 0x4E487B7100000000000000000000000000000000000000000000000000000000 PUSH0 MSTORE PUSH1 0x22 PUSH1 0x4 MSTORE PUSH1 0x24 PUSH0 REVERT JUMPDEST PUSH0 PUSH1 0x2 DUP3 DIV SWAP1 POP PUSH1 0x1 DUP3 AND DUP1 PUSH2 0xDCD JUMPI PUSH1 0x7F DUP3 AND SWAP2 POP JUMPDEST PUSH1 0x20 DUP3 LT DUP2 SUB PUSH2 0xDE0 JUMPI PUSH2 0xDDF PUSH2 0xD89 JUMP JUMPDEST JUMPDEST POP SWAP2 SWAP1 POP JUMP JUMPDEST PUSH0 DUP2 SWAP1 POP DUP2 PUSH0 MSTORE PUSH1 0x20 PUSH0 KECCAK256 SWAP1 POP SWAP2 SWAP1 POP JUMP JUMPDEST PUSH0 PUSH1 0x20 PUSH1 0x1F DUP4 ADD DIV SWAP1 POP SWAP2 SWAP1 POP JUMP JUMPDEST PUSH0 DUP3 DUP3 SHL SWAP1 POP SWAP3 SWAP2 POP POP JUMP JUMPDEST PUSH0 PUSH1 0x8 DUP4 MUL PUSH2 0xE42 PUSH32 0xFFFFFFFFFFFFFFFFFFFFFFFFFFFFFFFFFFFFFFFFFFFFFFFFFFFFFFFFFFFFFFFF DUP3 PUSH2 0xE07 JUMP JUMPDEST PUSH2 0xE4C DUP7 DUP4 PUSH2 0xE07 JUMP JUMPDEST SWAP6 POP DUP1 NOT DUP5 AND SWAP4 POP DUP1 DUP7 AND DUP5 OR SWAP3 POP POP POP SWAP4 SWAP3 POP POP POP JUMP JUMPDEST PUSH0 DUP2 SWAP1 POP SWAP2 SWAP1 POP JUMP JUMPDEST PUSH0 PUSH2 0xE87 PUSH2 0xE82 PUSH2 0xE7D DUP5 PUSH2 0x915 JUMP JUMPDEST PUSH2 0xE64 JUMP JUMPDEST PUSH2 0x915 JUMP JUMPDEST SWAP1 POP SWAP2 SWAP1 POP JUMP JUMPDEST PUSH0 DUP2 SWAP1 POP SWAP2 SWAP1 POP JUMP JUMPDEST PUSH2 0xEA0 DUP4 PUSH2 0xE6D JUMP JUMPDEST PUSH2 0xEB4 PUSH2 0xEAC DUP3 PUSH2 0xE8E JUMP JUMPDEST DUP5 DUP5 SLOAD PUSH2 0xE13 JUMP JUMPDEST DUP3 SSTORE POP POP POP POP JUMP JUMPDEST PUSH0 SWAP1 JUMP JUMPDEST PUSH2 0xEC8 PUSH2 0xEBC JUMP JUMPDEST PUSH2 0xED3 DUP2 DUP5 DUP5 PUSH2 0xE97 JUMP JUMPDEST POP POP POP JUMP JUMPDEST JUMPDEST DUP2 DUP2 LT ISZERO PUSH2 0xEF6 JUMPI PUSH2 0xEEB PUSH0 DUP3 PUSH2 0xEC0 JUMP JUMPDEST PUSH1 0x1 DUP2 ADD SWAP1 POP PUSH2 0xED9 JUMP JUMPDEST POP POP JUMP JUMPDEST PUSH1 0x1F DUP3 GT ISZERO PUSH2 0xF3B JUMPI PUSH2 0xF0C DUP2 PUSH2 0xDE6 JUMP JUMPDEST PUSH2 0xF15 DUP5 PUSH2 0xDF8 JUMP JUMPDEST DUP2 ADD PUSH1 0x20 DUP6 LT ISZERO PUSH2 0xF24 JUMPI DUP2 SWAP1 POP JUMPDEST PUSH2 0xF38 PUSH2 0xF30 DUP6 PUSH2 0xDF8 JUMP JUMPDEST DUP4 ADD DUP3 PUSH2 0xED8 JUMP JUMPDEST POP POP JUMPDEST POP POP POP JUMP JUMPDEST PUSH0 DUP3 DUP3 SHR SWAP1 POP SWAP3 SWAP2 POP POP JUMP JUMPDEST PUSH0 PUSH2 0xF5B PUSH0 NOT DUP5 PUSH1 0x8 MUL PUSH2 0xF40 JUMP JUMPDEST NOT DUP1 DUP4 AND SWAP2 POP POP SWAP3 SWAP2 POP POP JUMP JUMPDEST PUSH0 PUSH2 0xF73 DUP4 DUP4 PUSH2 0xF4C JUMP JUMPDEST SWAP2 POP DUP3 PUSH1 0x2 MUL DUP3 OR SWAP1 POP SWAP3 SWAP2 POP POP JUMP JUMPDEST PUSH2 0xF8C DUP3 PUSH2 0xB2E JUMP JUMPDEST PUSH8 0xFFFFFFFFFFFFFFFF DUP2 GT ISZERO PUSH2 0xFA5 JUMPI PUSH2 0xFA4 PUSH2 0x7F1 JUMP JUMPDEST JUMPDEST PUSH2 0xFAF DUP3 SLOAD PUSH2 0xDB6 JUMP JUMPDEST PUSH2 0xFBA DUP3 DUP3 DUP6 PUSH2 0xEFA JUMP JUMPDEST PUSH0 PUSH1 0x20 SWAP1 POP PUSH1 0x1F DUP4 GT PUSH1 0x1 DUP2 EQ PUSH2 0xFEB JUMPI PUSH0 DUP5 ISZERO PUSH2 0xFD9 JUMPI DUP3 DUP8 ADD MLOAD SWAP1 POP JUMPDEST PUSH2 0xFE3 DUP6 DUP3 PUSH2 0xF68 JUMP JUMPDEST DUP7 SSTORE POP PUSH2 0x104A JUMP JUMPDEST PUSH1 0x1F NOT DUP5 AND PUSH2 0xFF9 DUP7 PUSH2 0xDE6 JUMP JUMPDEST PUSH0 JUMPDEST DUP3 DUP2 LT ISZERO PUSH2 0x1020 JUMPI DUP5 DUP10 ADD MLOAD DUP3 SSTORE PUSH1 0x1 DUP3 ADD SWAP2 POP PUSH1 0x20 DUP6 ADD SWAP5 POP PUSH1 0x20 DUP2 ADD SWAP1 POP PUSH2 0xFFB JUMP JUMPDEST DUP7 DUP4 LT ISZERO PUSH2 0x103D JUMPI DUP5 DUP10 ADD MLOAD PUSH2 0x1039 PUSH1 0x1F DUP10 AND DUP3 PUSH2 0xF4C JUMP JUMPDEST DUP4 SSTORE POP JUMPDEST PUSH1 0x1 PUSH1 0x2 DUP9 MUL ADD DUP9 SSTORE POP POP POP JUMPDEST POP POP POP POP POP POP JUMP JUMPDEST PUSH32 0x496E76616C69642061646D696E20616464726573732E00000000000000000000 PUSH0 DUP3 ADD MSTORE POP JUMP JUMPDEST PUSH0 PUSH2 0x1086 PUSH1 0x16 DUP4 PUSH2 0xB38 JUMP JUMPDEST SWAP2 POP PUSH2 0x1091 DUP3 PUSH2 0x1052 JUMP JUMPDEST PUSH1 0x20 DUP3 ADD SWAP1 POP SWAP2 SWAP1 POP JUMP JUMPDEST PUSH0 PUSH1 0x20 DUP3 ADD SWAP1 POP DUP2 DUP2 SUB PUSH0 DUP4 ADD MSTORE PUSH2 0x10B3 DUP2 PUSH2 0x107A JUMP JUMPDEST SWAP1 POP SWAP2 SWAP1 POP JUMP JUMPDEST PUSH32 0x436572746966696361746520646F6573206E6F7420657869737420666F722074 PUSH0 DUP3 ADD MSTORE PUSH32 0x6869732073747564656E742049442E0000000000000000000000000000000000 PUSH1 0x20 DUP3 ADD MSTORE POP JUMP JUMPDEST PUSH0 PUSH2 0x1114 PUSH1 0x2F DUP4 PUSH2 0xB38 JUMP JUMPDEST SWAP2 POP PUSH2 0x111F DUP3 PUSH2 0x10BA JUMP JUMPDEST PUSH1 0x40 DUP3 ADD SWAP1 POP SWAP2 SWAP1 POP JUMP JUMPDEST PUSH0 PUSH1 0x20 DUP3 ADD SWAP1 POP DUP2 DUP2 SUB PUSH0 DUP4 ADD MSTORE PUSH2 0x1141 DUP2 PUSH2 0x1108 JUMP JUMPDEST SWAP1 POP SWAP2 SWAP1 POP JUMP INVALID LOG2 PUSH5 0x6970667358 0x22 SLT KECCAK256 LOG0 SWAP15 DUP8 DUP11 SAR 0xBD SWAP16 PUSH7 0xD484AC95B3649E PC POP 0xF9 EXP SWAP9 GT 0xB4 PREVRANDAO 0xD5 AND 0xCF 0x24 DUP13 MSTORE PREVRANDAO DUP5 ORIGIN PUSH5 0x736F6C6343 STOP ADDMOD BYTE STOP CALLER "
				},
				"gasEstimates": {
					"creation": {
						"codeDepositCost": "895600",
						"executionCost": "25192",
						"totalCost": "920792"
					},
					"external": {
						"admin()": "2574",
						"changeAdmin(address)": "30632",
						"getCertificate(string)": "infinite",
						"issueCertificate(string,string,string,string,uint256)": "infinite",
						"verifyCertificate(string)": "infinite"
					}
				},
				"methodIdentifiers": {
					"admin()": "f851a440",
					"changeAdmin(address)": "8f283970",
					"getCertificate(string)": "ed0f2e75",
					"issueCertificate(string,string,string,string,uint256)": "5e2213f7",
					"verifyCertificate(string)": "8b23d875"
				}
			},
			"storageLayout": {
				"storage": [
					{
						"astId": 17,
						"contract": "SchoolCertificate.sol:SchoolCertificate",
						"label": "certificates",
						"offset": 0,
						"slot": "0",
						"type": "t_mapping(t_string_memory_ptr,t_struct(Certificate)12_storage)"
					},
					{
						"astId": 19,
						"contract": "SchoolCertificate.sol:SchoolCertificate",
						"label": "admin",
						"offset": 0,
						"slot": "1",
						"type": "t_address"
					}
				],
				"types": {
					"t_address": {
						"encoding": "inplace",
						"label": "address",
						"numberOfBytes": "20"
					},
					"t_bool": {
						"encoding": "inplace",
						"label": "bool",
						"numberOfBytes": "1"
					},
					"t_mapping(t_string_memory_ptr,t_struct(Certificate)12_storage)": {
						"encoding": "mapping",
						"key": "t_string_memory_ptr",
						"label": "mapping(string => struct SchoolCertificate.Certificate)",
						"numberOfBytes": "32",
						"value": "t_struct(Certificate)12_storage"
					},
					"t_string_memory_ptr": {
						"encoding": "bytes",
						"label": "string",
						"numberOfBytes": "32"
					},
					"t_string_storage": {
						"encoding": "bytes",
						"label": "string",
						"numberOfBytes": "32"
					},
					"t_struct(Certificate)12_storage": {
						"encoding": "inplace",
						"label": "struct SchoolCertificate.Certificate",
						"members": [
							{
								"astId": 3,
								"contract": "SchoolCertificate.sol:SchoolCertificate",
								"label": "studentName",
								"offset": 0,
								"slot": "0",
								"type": "t_string_storage"
							},
							{
								"astId": 5,
								"contract": "SchoolCertificate.sol:SchoolCertificate",
								"label": "courseName",
								"offset": 0,
								"slot": "1",
								"type": "t_string_storage"
							},
							{
								"astId": 7,
								"contract": "SchoolCertificate.sol:SchoolCertificate",
								"label": "grade",
								"offset": 0,
								"slot": "2",
								"type": "t_string_storage"
							},
							{
								"astId": 9,
								"contract": "SchoolCertificate.sol:SchoolCertificate",
								"label": "dateOfIssuance",
								"offset": 0,
								"slot": "3",
								"type": "t_uint256"
							},
							{
								"astId": 11,
								"contract": "SchoolCertificate.sol:SchoolCertificate",
								"label": "exists",
								"offset": 0,
								"slot": "4",
								"type": "t_bool"
							}
						],
						"numberOfBytes": "160"
					},
					"t_uint256": {
						"encoding": "inplace",
						"label": "uint256",
						"numberOfBytes": "32"
					}
				}
			},
			"userdoc": {
				"kind": "user",
				"methods": {},
				"version": 1
			}
		}
	}
}